Component: ARM Compiler 5.06 update 4 (build 422) Tool: armlink [4d35d2]

==============================================================================

Section Cross References

    startup_stm32f10x_md.o(STACK) refers (Special) to heapauxi.o(.text) for __use_two_region_memory
    startup_stm32f10x_md.o(HEAP) refers (Special) to heapauxi.o(.text) for __use_two_region_memory
    startup_stm32f10x_md.o(RESET) refers (Special) to heapauxi.o(.text) for __use_two_region_memory
    startup_stm32f10x_md.o(RESET) refers to startup_stm32f10x_md.o(STACK) for __initial_sp
    startup_stm32f10x_md.o(RESET) refers to startup_stm32f10x_md.o(.text) for Reset_Handler
    startup_stm32f10x_md.o(RESET) refers to stm32f10x_it.o(i.NMI_Handler) for NMI_Handler
    startup_stm32f10x_md.o(RESET) refers to stm32f10x_it.o(i.HardFault_Handler) for HardFault_Handler
    startup_stm32f10x_md.o(RESET) refers to stm32f10x_it.o(i.MemManage_Handler) for MemManage_Handler
    startup_stm32f10x_md.o(RESET) refers to stm32f10x_it.o(i.BusFault_Handler) for BusFault_Handler
    startup_stm32f10x_md.o(RESET) refers to stm32f10x_it.o(i.UsageFault_Handler) for UsageFault_Handler
    startup_stm32f10x_md.o(RESET) refers to stm32f10x_it.o(i.SVC_Handler) for SVC_Handler
    startup_stm32f10x_md.o(RESET) refers to stm32f10x_it.o(i.DebugMon_Handler) for DebugMon_Handler
    startup_stm32f10x_md.o(RESET) refers to stm32f10x_it.o(i.PendSV_Handler) for PendSV_Handler
    startup_stm32f10x_md.o(RESET) refers to stm32f10x_it.o(i.SysTick_Handler) for SysTick_Handler
    startup_stm32f10x_md.o(RESET) refers to exti.o(i.EXTI0_IRQHandler) for EXTI0_IRQHandler
    startup_stm32f10x_md.o(RESET) refers to exti.o(i.EXTI4_IRQHandler) for EXTI4_IRQHandler
    startup_stm32f10x_md.o(RESET) refers to dma2.o(i.DMA1_Channel7_IRQHandler) for DMA1_Channel7_IRQHandler
    startup_stm32f10x_md.o(RESET) refers to exti.o(i.EXTI9_5_IRQHandler) for EXTI9_5_IRQHandler
==============================================================================

Removing Unused input sections from the image.

    Removing core_cm3.o(.emb_text), (32 bytes).
    Removing main.o(.data), (4 bytes).
    Removing usart1.o(i.USART1_GPIO_Init), (60 bytes).
    Removing usart1.o(i.USART1_Init), (112 bytes).
    Removing usart1.o(i.USART1_Send_Byte), (32 bytes).
    Removing usart1.o(i.USART1_data_translate), (2 bytes).
    Removing usart2.o(i.USART2_Init), (176 bytes).
    Removing usart2.o(i.USART2_Send), (36 bytes).
    Removing usart2.o(i.USART2_Send_Byte), (32 bytes).
    Removing usart2.o(.data), (5 bytes).
    Removing usart3.o(i.USART3_Init), (204 bytes).
    Removing usart3.o(i.USART3_Send), (2 bytes).
    Removing usart3.o(i.USART3_Send_Byte), (32 bytes).
    Removing exti.o(.data), (8 bytes).
    Removing timer.o(i.TIM2_Init), (260 bytes).
    Removing timer.o(i.TIM2_PWM_set_ms), (28 bytes).
    Removing timer.o(i.TIM4_Init), (352 bytes).
    Removing timer.o(i.TIM4_PWM_set_ms), (52 bytes).
==============================================================================

Image Symbol Table

    Local Symbols

    Symbol Name                              Value     Ov Type        Size  Object(Section)

    ../clib/angel/boardlib.s                 0x00000000   Number         0  boardshut.o ABSOLUTE
    ../clib/angel/boardlib.s                 0x00000000   Number         0  boardinit1.o ABSOLUTE
    ../clib/angel/boardlib.s                 0x00000000   Number         0  boardinit3.o ABSOLUTE
    ../clib/angel/boardlib.s                 0x00000000   Number         0  boardinit2.o ABSOLUTE
    ../clib/angel/dczerorl2.s                0x00000000   Number         0  __dczerorl2.o ABSOLUTE
    ../clib/angel/handlers.s                 0x00000000   Number         0  __scatter_zi.o ABSOLUTE
    ../clib/angel/kernel.s                   0x00000000   Number         0  __rtentry.o ABSOLUTE
    ../clib/angel/kernel.s                   0x00000000   Number         0  rtexit.o ABSOLUTE
    ../clib/angel/kernel.s                   0x00000000   Number         0  rtexit2.o ABSOLUTE
    ../clib/angel/kernel.s                   0x00000000   Number         0  __rtentry4.o ABSOLUTE
    ../clib/angel/kernel.s                   0x00000000   Number         0  __rtentry2.o ABSOLUTE
    ../clib/angel/rt.s                       0x00000000   Number         0  rt_raise.o ABSOLUTE
    ../clib/angel/scatter.s                  0x00000000   Number         0  __scatter.o ABSOLUTE
    ../clib/angel/startup.s                  0x00000000   Number         0  __main.o ABSOLUTE
    ../clib/angel/sys.s                      0x00000000   Number         0  use_no_semi.o ABSOLUTE
    ../clib/angel/sys.s                      0x00000000   Number         0  libspace.o ABSOLUTE
    ../clib/angel/sys.s                      0x00000000   Number         0  indicate_semi.o ABSOLUTE
    ../clib/angel/sys.s                      0x00000000   Number         0  sys_stackheap_outer.o ABSOLUTE
    ../clib/angel/sysapp.c                   0x00000000   Number         0  sys_wrch.o ABSOLUTE
    ../clib/angel/sysapp.c                   0x00000000   Number         0  sys_exit.o ABSOLUTE
    ../clib/angel/sysapp.c                   0x00000000   Number         0  sys_command.o ABSOLUTE
    ../clib/armsys.c                         0x00000000   Number         0  argv_veneer.o ABSOLUTE
    ../clib/armsys.c                         0x00000000   Number         0  argv_veneer.o ABSOLUTE
    ../clib/armsys.c                         0x00000000   Number         0  no_argv.o ABSOLUTE
    ../clib/armsys.c                         0x00000000   Number         0  _get_argv_nomalloc.o ABSOLUTE
    ../clib/heapalloc.c                      0x00000000   Number         0  hrguard.o ABSOLUTE
    ../clib/heapaux.c                        0x00000000   Number         0  heapauxi.o ABSOLUTE
    ../clib/libinit.s                        0x00000000   Number         0  libinit.o ABSOLUTE
    ../clib/libinit.s                        0x00000000   Number         0  libshutdown2.o ABSOLUTE
    ../clib/libinit.s                        0x00000000   Number         0  libshutdown.o ABSOLUTE
    ../clib/libinit.s                        0x00000000   Number         0  libinit2.o ABSOLUTE
    ../clib/signal.c                         0x00000000   Number         0  defsig_abrt_inner.o ABSOLUTE
    ../clib/signal.c                         0x00000000   Number         0  defsig_other.o ABSOLUTE
    ../clib/signal.c                         0x00000000   Number         0  defsig_segv_inner.o ABSOLUTE
    ../clib/signal.c                         0x00000000   Number         0  defsig_cppl_inner.o ABSOLUTE
    ../clib/signal.c                         0x00000000   Number         0  defsig_pvfn_inner.o ABSOLUTE
    ../clib/signal.c                         0x00000000   Number         0  defsig_stak_inner.o ABSOLUTE
    ../clib/signal.c                         0x00000000   Number         0  defsig_fpe_inner.o ABSOLUTE
    ../clib/signal.c                         0x00000000   Number         0  defsig_exit.o ABSOLUTE
    ../clib/signal.c                         0x00000000   Number         0  defsig_rtmem_inner.o ABSOLUTE
    ../clib/signal.c                         0x00000000   Number         0  defsig_rtred_inner.o ABSOLUTE
    ../clib/signal.c                         0x00000000   Number         0  defsig_rtmem_formal.o ABSOLUTE
    ../clib/signal.c                         0x00000000   Number         0  defsig_rtmem_outer.o ABSOLUTE
    ../clib/signal.c                         0x00000000   Number         0  __raise.o ABSOLUTE
    ../clib/signal.c                         0x00000000   Number         0  defsig_general.o ABSOLUTE
    ../clib/signal.s                         0x00000000   Number         0  defsig.o ABSOLUTE
    ../clib/stdlib.c                         0x00000000   Number         0  exit.o ABSOLUTE
    ../fplib/daddsub.s                       0x00000000   Number         0  daddsub_clz.o ABSOLUTE
    ../fplib/ddiv.s                          0x00000000   Number         0  ddiv.o ABSOLUTE
    ../fplib/dfix.s                          0x00000000   Number         0  dfix.o ABSOLUTE
    ../fplib/dflt.s                          0x00000000   Number         0  dflt_clz.o ABSOLUTE
    ../fplib/dmul.s                          0x00000000   Number         0  dmul.o ABSOLUTE
    ../fplib/dnaninf.s                       0x00000000   Number         0  dnaninf.o ABSOLUTE
    ../fplib/dretinf.s                       0x00000000   Number         0  dretinf.o ABSOLUTE
    ../fplib/f2d.s                           0x00000000   Number         0  f2d.o ABSOLUTE
    ../fplib/faddsub.s                       0x00000000   Number         0  faddsub_clz.o ABSOLUTE
    ../fplib/fdiv.s                          0x00000000   Number         0  fdiv.o ABSOLUTE
    ../fplib/ffixu.s                         0x00000000   Number         0  ffixu.o ABSOLUTE
    ../fplib/fflt.s                          0x00000000   Number         0  fflt_clz.o ABSOLUTE
    ../fplib/fmul.s                          0x00000000   Number         0  fmul.o ABSOLUTE
    ../fplib/fnaninf.s                       0x00000000   Number         0  fnaninf.o ABSOLUTE
    ../fplib/fpinit.s                        0x00000000   Number         0  fpinit.o ABSOLUTE
    ../fplib/fretinf.s                       0x00000000   Number         0  fretinf.o ABSOLUTE
    ../fplib/usenofp.s                       0x00000000   Number         0  usenofp.o ABSOLUTE
    ..\CORE\core_cm3.c                       0x00000000   Number         0  core_cm3.o ABSOLUTE
    ..\CORE\startup_stm32f10x_md.s           0x00000000   Number         0  startup_stm32f10x_md.o ABSOLUTE
    ..\HARDWARE\ADC\adc.c                    0x00000000   Number         0  adc.o ABSOLUTE
    ..\HARDWARE\CRC16\crc16.c                0x00000000   Number         0  crc16.o ABSOLUTE
    ..\HARDWARE\DMA\dma2.c                   0x00000000   Number         0  dma2.o ABSOLUTE
    ..\HARDWARE\EXTI\exti.c                  0x00000000   Number         0  exti.o ABSOLUTE
    ..\HARDWARE\FOC\as5600.c                 0x00000000   Number         0  as5600.o ABSOLUTE
    ..\HARDWARE\FOC\ipark.c                  0x00000000   Number         0  ipark.o ABSOLUTE
    ..\HARDWARE\FOC\motor_control.c          0x00000000   Number         0  motor_control.o ABSOLUTE
    ..\HARDWARE\FOC\svpwm.c                  0x00000000   Number         0  svpwm.o ABSOLUTE
    ..\HARDWARE\IIC\myiic.c                  0x00000000   Number         0  myiic.o ABSOLUTE
    ..\HARDWARE\LED\led.c                    0x00000000   Number         0  led.o ABSOLUTE
    ..\HARDWARE\NVIC\nvic.c                  0x00000000   Number         0  nvic.o ABSOLUTE
    ..\HARDWARE\TIMER\timer.c                0x00000000   Number         0  timer.o ABSOLUTE
    ..\HARDWARE\TIMER\timer1.c               0x00000000   Number         0  timer1.o ABSOLUTE
    ..\HARDWARE\USART1\usart1.c              0x00000000   Number         0  usart1.o ABSOLUTE
    ..\HARDWARE\USART2\usart2.c              0x00000000   Number         0  usart2.o ABSOLUTE
    ..\HARDWARE\USART3\usart3.c              0x00000000   Number         0  usart3.o ABSOLUTE
    ..\STM32F10x_FWLib\src\misc.c            0x00000000   Number         0  misc.o ABSOLUTE
    ..\STM32F10x_FWLib\src\stm32f10x_adc.c   0x00000000   Number         0  stm32f10x_adc.o ABSOLUTE
    ..\STM32F10x_FWLib\src\stm32f10x_crc.c   0x00000000   Number         0  stm32f10x_crc.o ABSOLUTE
    ..\STM32F10x_FWLib\src\stm32f10x_dma.c   0x00000000   Number         0  stm32f10x_dma.o ABSOLUTE
    ..\STM32F10x_FWLib\src\stm32f10x_exti.c  0x00000000   Number         0  stm32f10x_exti.o ABSOLUTE
    ..\STM32F10x_FWLib\src\stm32f10x_gpio.c  0x00000000   Number         0  stm32f10x_gpio.o ABSOLUTE
    ..\STM32F10x_FWLib\src\stm32f10x_i2c.c   0x00000000   Number         0  stm32f10x_i2c.o ABSOLUTE
    ..\STM32F10x_FWLib\src\stm32f10x_rcc.c   0x00000000   Number         0  stm32f10x_rcc.o ABSOLUTE
    ..\STM32F10x_FWLib\src\stm32f10x_rtc.c   0x00000000   Number         0  stm32f10x_rtc.o ABSOLUTE
    ..\STM32F10x_FWLib\src\stm32f10x_sdio.c  0x00000000   Number         0  stm32f10x_sdio.o ABSOLUTE
    ..\STM32F10x_FWLib\src\stm32f10x_spi.c   0x00000000   Number         0  stm32f10x_spi.o ABSOLUTE
    ..\STM32F10x_FWLib\src\stm32f10x_tim.c   0x00000000   Number         0  stm32f10x_tim.o ABSOLUTE
    ..\STM32F10x_FWLib\src\stm32f10x_usart.c 0x00000000   Number         0  stm32f10x_usart.o ABSOLUTE
    ..\SYSTEM\delay\delay.c                  0x00000000   Number         0  delay.o ABSOLUTE
    ..\SYSTEM\sys\sys.c                      0x00000000   Number         0  sys.o ABSOLUTE
    ..\\CORE\\core_cm3.c                     0x00000000   Number         0  core_cm3.o ABSOLUTE
    dc.s                                     0x00000000   Number         0  dc.o ABSOLUTE
    keil\IQNcosPU.S                          0x00000000   Number         0  IQNcosPU.o ABSOLUTE
    keil\IQNdiv.S                            0x00000000   Number         0  IQNdiv.o ABSOLUTE
    keil\IQNmpy.S                            0x00000000   Number         0  IQNmpy.o ABSOLUTE
    keil\IQNsinPU.S                          0x00000000   Number         0  IQNsinPU.o ABSOLUTE
    keil\IQNtoF.S                            0x00000000   Number         0  IQNtoF.o ABSOLUTE
    keil\IQtables.S                          0x00000000   Number         0  IQtables.o ABSOLUTE
    main.c                                   0x00000000   Number         0  main.o ABSOLUTE
    stm32f10x_it.c                           0x00000000   Number         0  stm32f10x_it.o ABSOLUTE
    system_stm32f10x.c                       0x00000000   Number         0  system_stm32f10x.o ABSOLUTE
    RESET                                    0x08000000   Section      236  startup_stm32f10x_md.o(RESET)
    !!!main                                  0x080000ec   Section        8  __main.o(!!!main)
    !!!scatter                               0x080000f4   Section       52  __scatter.o(!!!scatter)
    !!dczerorl2                              0x08000128   Section       90  __dczerorl2.o(!!dczerorl2)
    !!handler_zi                             0x08000184   Section       28  __scatter_zi.o(!!handler_zi)
    .ARM.Collect$$libinit$$00000000          0x080001a0   Section        2  libinit.o(.ARM.Collect$$libinit$$00000000)
    .ARM.Collect$$libinit$$00000002          0x080001a2   Section        0  libinit2.o(.ARM.Collect$$libinit$$00000002)
    .ARM.Collect$$libinit$$00000004          0x080001a2   Section        0  libinit2.o(.ARM.Collect$$libinit$$00000004)
    .ARM.Collect$$libinit$$0000000A          0x080001a2   Section        0  libinit2.o(.ARM.Collect$$libinit$$0000000A)
    .ARM.Collect$$libinit$$0000000C          0x080001a2   Section        0  libinit2.o(.ARM.Collect$$libinit$$0000000C)
    .ARM.Collect$$libinit$$0000000E          0x080001a2   Section        0  libinit2.o(.ARM.Collect$$libinit$$0000000E)
    .ARM.Collect$$libinit$$00000011          0x080001a2   Section        0  libinit2.o(.ARM.Collect$$libinit$$00000011)
    .ARM.Collect$$libinit$$00000013          0x080001a2   Section        0  libinit2.o(.ARM.Collect$$libinit$$00000013)
    .ARM.Collect$$libinit$$00000015          0x080001a2   Section        0  libinit2.o(.ARM.Collect$$libinit$$00000015)
    .ARM.Collect$$libinit$$00000017          0x080001a2   Section        0  libinit2.o(.ARM.Collect$$libinit$$00000017)
    .ARM.Collect$$libinit$$00000019          0x080001a2   Section        0  libinit2.o(.ARM.Collect$$libinit$$00000019)
    .ARM.Collect$$libinit$$0000001B          0x080001a2   Section        0  libinit2.o(.ARM.Collect$$libinit$$0000001B)
    .ARM.Collect$$libinit$$0000001D          0x080001a2   Section        0  libinit2.o(.ARM.Collect$$libinit$$0000001D)
    .ARM.Collect$$libinit$$0000001F          0x080001a2   Section        0  libinit2.o(.ARM.Collect$$libinit$$0000001F)
    .ARM.Collect$$libinit$$00000021          0x080001a2   Section        0  libinit2.o(.ARM.Collect$$libinit$$00000021)
    .ARM.Collect$$libinit$$00000023          0x080001a2   Section        0  libinit2.o(.ARM.Collect$$libinit$$00000023)
    .ARM.Collect$$libinit$$00000025          0x080001a2   Section        0  libinit2.o(.ARM.Collect$$libinit$$00000025)
    .ARM.Collect$$libinit$$0000002C          0x080001a2   Section        0  libinit2.o(.ARM.Collect$$libinit$$0000002C)
    .ARM.Collect$$libinit$$0000002E          0x080001a2   Section        0  libinit2.o(.ARM.Collect$$libinit$$0000002E)
    .ARM.Collect$$libinit$$00000030          0x080001a2   Section        0  libinit2.o(.ARM.Collect$$libinit$$00000030)
    .ARM.Collect$$libinit$$00000032          0x080001a2   Section        0  libinit2.o(.ARM.Collect$$libinit$$00000032)
    .ARM.Collect$$libinit$$00000033          0x080001a2   Section        2  libinit2.o(.ARM.Collect$$libinit$$00000033)
    .ARM.Collect$$libshutdown$$00000000      0x080001a4   Section        2  libshutdown.o(.ARM.Collect$$libshutdown$$00000000)
    .ARM.Collect$$libshutdown$$00000002      0x080001a6   Section        0  libshutdown2.o(.ARM.Collect$$libshutdown$$00000002)
    .ARM.Collect$$libshutdown$$00000004      0x080001a6   Section        0  libshutdown2.o(.ARM.Collect$$libshutdown$$00000004)
    .ARM.Collect$$libshutdown$$00000007      0x080001a6   Section        0  libshutdown2.o(.ARM.Collect$$libshutdown$$00000007)
    .ARM.Collect$$libshutdown$$0000000A      0x080001a6   Section        0  libshutdown2.o(.ARM.Collect$$libshutdown$$0000000A)
    .ARM.Collect$$libshutdown$$0000000C      0x080001a6   Section        0  libshutdown2.o(.ARM.Collect$$libshutdown$$0000000C)
    .ARM.Collect$$libshutdown$$0000000F      0x080001a6   Section        0  libshutdown2.o(.ARM.Collect$$libshutdown$$0000000F)
    .ARM.Collect$$libshutdown$$00000010      0x080001a6   Section        2  libshutdown2.o(.ARM.Collect$$libshutdown$$00000010)
    .ARM.Collect$$rtentry$$00000000          0x080001a8   Section        0  __rtentry.o(.ARM.Collect$$rtentry$$00000000)
    .ARM.Collect$$rtentry$$00000002          0x080001a8   Section        0  __rtentry2.o(.ARM.Collect$$rtentry$$00000002)
    .ARM.Collect$$rtentry$$00000004          0x080001a8   Section        6  __rtentry4.o(.ARM.Collect$$rtentry$$00000004)
    .ARM.Collect$$rtentry$$00000009          0x080001ae   Section        0  __rtentry2.o(.ARM.Collect$$rtentry$$00000009)
    .ARM.Collect$$rtentry$$0000000A          0x080001ae   Section        4  __rtentry2.o(.ARM.Collect$$rtentry$$0000000A)
    .ARM.Collect$$rtentry$$0000000C          0x080001b2   Section        0  __rtentry2.o(.ARM.Collect$$rtentry$$0000000C)
    .ARM.Collect$$rtentry$$0000000D          0x080001b2   Section        8  __rtentry2.o(.ARM.Collect$$rtentry$$0000000D)
    .ARM.Collect$$rtexit$$00000000           0x080001ba   Section        2  rtexit.o(.ARM.Collect$$rtexit$$00000000)
    .ARM.Collect$$rtexit$$00000002           0x080001bc   Section        0  rtexit2.o(.ARM.Collect$$rtexit$$00000002)
    .ARM.Collect$$rtexit$$00000003           0x080001bc   Section        4  rtexit2.o(.ARM.Collect$$rtexit$$00000003)
    .ARM.Collect$$rtexit$$00000004           0x080001c0   Section        6  rtexit2.o(.ARM.Collect$$rtexit$$00000004)
    .text                                    0x080001c8   Section       64  startup_stm32f10x_md.o(.text)
    .text                                    0x08000208   Section        0  heapauxi.o(.text)
    .text                                    0x0800020e   Section       74  sys_stackheap_outer.o(.text)
    .text                                    0x08000258   Section        0  exit.o(.text)
    .text                                    0x0800026c   Section        8  libspace.o(.text)
    .text                                    0x08000274   Section        0  sys_exit.o(.text)
    .text                                    0x08000280   Section        2  use_no_semi.o(.text)
    .text                                    0x08000282   Section        0  indicate_semi.o(.text)
    _IQ15cosPU                               0x08000284   Section      128  IQNcosPU.o(_IQ15cosPU)
    _IQ15div                                 0x08000304   Section      144  IQNdiv.o(_IQ15div)
    _IQ15mpy                                 0x08000394   Section       16  IQNmpy.o(_IQ15mpy)
    _IQ15sinPU                               0x080003a4   Section      124  IQNsinPU.o(_IQ15sinPU)
    _IQ15toF                                 0x08000420   Section       36  IQNtoF.o(_IQ15toF)
    i.ADC_Cmd                                0x08000444   Section        0  stm32f10x_adc.o(i.ADC_Cmd)
    i.ADC_DeInit                             0x0800045c   Section        0  stm32f10x_adc.o(i.ADC_DeInit)
    i.ADC_GetCalibrationStatus               0x080004b8   Section        0  stm32f10x_adc.o(i.ADC_GetCalibrationStatus)
    i.ADC_GetConversionValue                 0x080004cc   Section        0  stm32f10x_adc.o(i.ADC_GetConversionValue)
    i.ADC_GetFlagStatus                      0x080004d4   Section        0  stm32f10x_adc.o(i.ADC_GetFlagStatus)
    i.ADC_GetResetCalibrationStatus          0x080004e6   Section        0  stm32f10x_adc.o(i.ADC_GetResetCalibrationStatus)
    i.ADC_Init                               0x080004fc   Section        0  stm32f10x_adc.o(i.ADC_Init)
    i.ADC_RegularChannelConfig               0x0800054c   Section        0  stm32f10x_adc.o(i.ADC_RegularChannelConfig)
    i.ADC_ResetCalibration                   0x08000604   Section        0  stm32f10x_adc.o(i.ADC_ResetCalibration)
    i.ADC_SoftwareStartConvCmd               0x0800060e   Section        0  stm32f10x_adc.o(i.ADC_SoftwareStartConvCmd)
    i.ADC_StartCalibration                   0x08000624   Section        0  stm32f10x_adc.o(i.ADC_StartCalibration)
    i.AS5600_Read_Len                        0x0800062e   Section        0  as5600.o(i.AS5600_Read_Len)
    i.Adc_Init                               0x080006a4   Section        0  adc.o(i.Adc_Init)
    i.BusFault_Handler                       0x08000784   Section        0  stm32f10x_it.o(i.BusFault_Handler)
    i.DMA1_Channel7_IRQHandler               0x08000788   Section        0  dma2.o(i.DMA1_Channel7_IRQHandler)
    i.DMA_ClearITPendingBit                  0x080007b4   Section        0  stm32f10x_dma.o(i.DMA_ClearITPendingBit)
    i.DMA_Cmd                                0x080007d0   Section        0  stm32f10x_dma.o(i.DMA_Cmd)
    i.DMA_DeInit                             0x080007e8   Section        0  stm32f10x_dma.o(i.DMA_DeInit)
    i.DMA_GetITStatus                        0x08000934   Section        0  stm32f10x_dma.o(i.DMA_GetITStatus)
    i.DMA_ITConfig                           0x08000960   Section        0  stm32f10x_dma.o(i.DMA_ITConfig)
    i.DMA_Init                               0x08000972   Section        0  stm32f10x_dma.o(i.DMA_Init)
    i.DMA_SetCurrDataCounter                 0x080009ae   Section        0  stm32f10x_dma.o(i.DMA_SetCurrDataCounter)
    i.DebugMon_Handler                       0x080009b2   Section        0  stm32f10x_it.o(i.DebugMon_Handler)
    i.EXTI0_IRQHandler                       0x080009b4   Section        0  exti.o(i.EXTI0_IRQHandler)
    i.EXTI4_IRQHandler                       0x080009cc   Section        0  exti.o(i.EXTI4_IRQHandler)
    i.EXTI9_5_IRQHandler                     0x08000a18   Section        0  exti.o(i.EXTI9_5_IRQHandler)
    i.EXTI_ClearITPendingBit                 0x08000a38   Section        0  stm32f10x_exti.o(i.EXTI_ClearITPendingBit)
    i.EXTI_Init                              0x08000a44   Section        0  stm32f10x_exti.o(i.EXTI_Init)
    i.EXTI_KEY_Config                        0x08000ad8   Section        0  exti.o(i.EXTI_KEY_Config)
    i.EXTI_KEY_NVIC_Config                   0x08000b4c   Section        0  nvic.o(i.EXTI_KEY_NVIC_Config)
    i.GPIO_EXTILineConfig                    0x08000b8c   Section        0  stm32f10x_gpio.o(i.GPIO_EXTILineConfig)
    i.GPIO_Init                              0x08000bcc   Section        0  stm32f10x_gpio.o(i.GPIO_Init)
    i.GPIO_ResetBits                         0x08000ce2   Section        0  stm32f10x_gpio.o(i.GPIO_ResetBits)
    i.Get_Adc1                               0x08000ce8   Section        0  adc.o(i.Get_Adc1)
    i.Get_Adc2                               0x08000d1c   Section        0  adc.o(i.Get_Adc2)
    i.HardFault_Handler                      0x08000d50   Section        0  stm32f10x_it.o(i.HardFault_Handler)
    i.IIC_Ack                                0x08000d54   Section        0  myiic.o(i.IIC_Ack)
    i.IIC_Init                               0x08000d9c   Section        0  myiic.o(i.IIC_Init)
    i.IIC_NAck                               0x08000ddc   Section        0  myiic.o(i.IIC_NAck)
    i.IIC_Read_Byte                          0x08000e20   Section        0  myiic.o(i.IIC_Read_Byte)
    i.IIC_Send_Byte                          0x08000e88   Section        0  myiic.o(i.IIC_Send_Byte)
    i.IIC_Start                              0x08000ee0   Section        0  myiic.o(i.IIC_Start)
    i.IIC_Stop                               0x08000f28   Section        0  myiic.o(i.IIC_Stop)
    i.IIC_Wait_Ack                           0x08000f6c   Section        0  myiic.o(i.IIC_Wait_Ack)
    i.IQtoABS0_1                             0x08000fc4   Section        0  timer1.o(i.IQtoABS0_1)
    i.LED_INIT                               0x08000fd0   Section        0  led.o(i.LED_INIT)
    i.MemManage_Handler                      0x08001030   Section        0  stm32f10x_it.o(i.MemManage_Handler)
    i.NMI_Handler                            0x08001034   Section        0  stm32f10x_it.o(i.NMI_Handler)
    i.NVIC_Config                            0x08001036   Section        0  nvic.o(i.NVIC_Config)
    i.NVIC_Init                              0x08001094   Section        0  misc.o(i.NVIC_Init)
    i.NVIC_PriorityGroupConfig               0x08001104   Section        0  misc.o(i.NVIC_PriorityGroupConfig)
    i.PendSV_Handler                         0x08001118   Section        0  stm32f10x_it.o(i.PendSV_Handler)
    i.RCC_ADCCLKConfig                       0x0800111c   Section        0  stm32f10x_rcc.o(i.RCC_ADCCLKConfig)
    i.RCC_AHBPeriphClockCmd                  0x08001134   Section        0  stm32f10x_rcc.o(i.RCC_AHBPeriphClockCmd)
    i.RCC_APB1PeriphClockCmd                 0x08001154   Section        0  stm32f10x_rcc.o(i.RCC_APB1PeriphClockCmd)
    i.RCC_APB1PeriphResetCmd                 0x08001174   Section        0  stm32f10x_rcc.o(i.RCC_APB1PeriphResetCmd)
    i.RCC_APB2PeriphClockCmd                 0x08001194   Section        0  stm32f10x_rcc.o(i.RCC_APB2PeriphClockCmd)
    i.RCC_APB2PeriphResetCmd                 0x080011b4   Section        0  stm32f10x_rcc.o(i.RCC_APB2PeriphResetCmd)
    i.RCC_GetClocksFreq                      0x080011d4   Section        0  stm32f10x_rcc.o(i.RCC_GetClocksFreq)
    i.SVC_Handler                            0x080012a8   Section        0  stm32f10x_it.o(i.SVC_Handler)
    i.SetSysClock                            0x080012aa   Section        0  system_stm32f10x.o(i.SetSysClock)
    SetSysClock                              0x080012ab   Thumb Code     8  system_stm32f10x.o(i.SetSysClock)
    i.SetSysClockTo72                        0x080012b4   Section        0  system_stm32f10x.o(i.SetSysClockTo72)
    SetSysClockTo72                          0x080012b5   Thumb Code   214  system_stm32f10x.o(i.SetSysClockTo72)
    i.SysTick_CLKSourceConfig                0x08001394   Section        0  misc.o(i.SysTick_CLKSourceConfig)
    i.SysTick_Handler                        0x080013bc   Section        0  stm32f10x_it.o(i.SysTick_Handler)
    i.SystemInit                             0x080013c0   Section        0  system_stm32f10x.o(i.SystemInit)
    i.TIM1_NVIC_Config                       0x08001420   Section        0  nvic.o(i.TIM1_NVIC_Config)
    i.TIM1_UP_IRQHandler                     0x08001444   Section        0  timer1.o(i.TIM1_UP_IRQHandler)
    i.TIM2_NVIC_Config                       0x080014b0   Section        0  nvic.o(i.TIM2_NVIC_Config)
    i.TIM3_IRQHandler                        0x080014d0   Section        0  timer.o(i.TIM3_IRQHandler)
    i.TIM3_Init                              0x08001788   Section        0  timer.o(i.TIM3_Init)
    i.TIM3_NVIC_Config                       0x080017f0   Section        0  nvic.o(i.TIM3_NVIC_Config)
    i.TIM4_NVIC_Config                       0x08001810   Section        0  nvic.o(i.TIM4_NVIC_Config)
    i.TIM_ARRPreloadConfig                   0x08001832   Section        0  stm32f10x_tim.o(i.TIM_ARRPreloadConfig)
    i.TIM_BDTRConfig                         0x0800184a   Section        0  stm32f10x_tim.o(i.TIM_BDTRConfig)
    i.TIM_CCPreloadControl                   0x0800186a   Section        0  stm32f10x_tim.o(i.TIM_CCPreloadControl)
    i.TIM_ClearFlag                          0x08001882   Section        0  stm32f10x_tim.o(i.TIM_ClearFlag)
    i.TIM_Cmd                                0x08001888   Section        0  stm32f10x_tim.o(i.TIM_Cmd)
    i.TIM_CtrlPWMOutputs                     0x080018a0   Section        0  stm32f10x_tim.o(i.TIM_CtrlPWMOutputs)
    i.TIM_DeInit                             0x080018c0   Section        0  stm32f10x_tim.o(i.TIM_DeInit)
    i.TIM_GetITStatus                        0x08001aa8   Section        0  stm32f10x_tim.o(i.TIM_GetITStatus)
    i.TIM_ITConfig                           0x08001aca   Section        0  stm32f10x_tim.o(i.TIM_ITConfig)
    i.TIM_OC1Init                            0x08001adc   Section        0  stm32f10x_tim.o(i.TIM_OC1Init)
    i.TIM_OC1PreloadConfig                   0x08001b74   Section        0  stm32f10x_tim.o(i.TIM_OC1PreloadConfig)
    i.TIM_OC2Init                            0x08001b88   Section        0  stm32f10x_tim.o(i.TIM_OC2Init)
    i.TIM_OC2PreloadConfig                   0x08001c2c   Section        0  stm32f10x_tim.o(i.TIM_OC2PreloadConfig)
    i.TIM_OC3Init                            0x08001c48   Section        0  stm32f10x_tim.o(i.TIM_OC3Init)
    i.TIM_OC3PreloadConfig                   0x08001ce8   Section        0  stm32f10x_tim.o(i.TIM_OC3PreloadConfig)
    i.TIM_TimeBaseInit                       0x08001cfc   Section        0  stm32f10x_tim.o(i.TIM_TimeBaseInit)
    i.USART1_IRQHandler                      0x08001da0   Section        0  usart1.o(i.USART1_IRQHandler)
    i.USART1_NVIC_Config                     0x08001dfc   Section        0  nvic.o(i.USART1_NVIC_Config)
    i.USART1_info_deal                       0x08001e1c   Section        0  usart1.o(i.USART1_info_deal)
    i.USART2_IRQHandler                      0x08001e20   Section        0  dma2.o(i.USART2_IRQHandler)
    i.USART2_NVIC_Config                     0x08001e58   Section        0  nvic.o(i.USART2_NVIC_Config)
    i.USART2_info_deal                       0x08001e7c   Section        0  usart2.o(i.USART2_info_deal)
    i.USART3_IRQHandler                      0x08002498   Section        0  usart3.o(i.USART3_IRQHandler)
    i.USART3_NVIC_Config                     0x080024f8   Section        0  nvic.o(i.USART3_NVIC_Config)
    i.USART3_data_translate                  0x08002516   Section        0  usart3.o(i.USART3_data_translate)
    i.USART3_info_deal                       0x08002518   Section        0  usart3.o(i.USART3_info_deal)
    i.USART_ClearFlag                        0x08002550   Section        0  stm32f10x_usart.o(i.USART_ClearFlag)
    i.USART_ClearITPendingBit                0x08002562   Section        0  stm32f10x_usart.o(i.USART_ClearITPendingBit)
    i.USART_Cmd                              0x08002580   Section        0  stm32f10x_usart.o(i.USART_Cmd)
    i.USART_DMACmd                           0x08002598   Section        0  stm32f10x_usart.o(i.USART_DMACmd)
    i.USART_GetITStatus                      0x080025aa   Section        0  stm32f10x_usart.o(i.USART_GetITStatus)
    i.USART_ITConfig                         0x080025fe   Section        0  stm32f10x_usart.o(i.USART_ITConfig)
    i.USART_Init                             0x08002648   Section        0  stm32f10x_usart.o(i.USART_Init)
    i.UsageFault_Handler                     0x08002720   Section        0  stm32f10x_it.o(i.UsageFault_Handler)
    i.ang_pi_cal                             0x08002724   Section        0  motor_control.o(i.ang_pi_cal)
    i.clear_pi                               0x08002830   Section        0  motor_control.o(i.clear_pi)
    i.clr_ctl_vrbs                           0x0800285c   Section        0  motor_control.o(i.clr_ctl_vrbs)
    i.commond_start                          0x080028cc   Section        0  motor_control.o(i.commond_start)
    i.commond_stop                           0x08002900   Section        0  motor_control.o(i.commond_stop)
    i.crose_zero_iq                          0x08002914   Section        0  motor_control.o(i.crose_zero_iq)
    i.ctl_struc_init                         0x08002998   Section        0  motor_control.o(i.ctl_struc_init)
    i.cur_pi_cal                             0x08002a44   Section        0  motor_control.o(i.cur_pi_cal)
    i.delay_init                             0x08002b60   Section        0  delay.o(i.delay_init)
    i.delay_ms                               0x08002ba4   Section        0  delay.o(i.delay_ms)
    i.delay_us                               0x08002bf0   Section        0  delay.o(i.delay_us)
    i.get_angle_u16                          0x08002c3c   Section        0  as5600.o(i.get_angle_u16)
    i.get_el_angle_iq                        0x08002c5c   Section        0  as5600.o(i.get_el_angle_iq)
    i.init_angle                             0x08002c98   Section        0  motor_control.o(i.init_angle)
    i.ipark_calc                             0x08002e38   Section        0  ipark.o(i.ipark_calc)
    i.main                                   0x08002e7e   Section        0  main.o(i.main)
    i.motor_control                          0x08002eb8   Section        0  motor_control.o(i.motor_control)
    i.over_cur_proctect                      0x0800321c   Section        0  motor_control.o(i.over_cur_proctect)
    i.pwm_cnt_irq_init                       0x0800327c   Section        0  timer1.o(i.pwm_cnt_irq_init)
    i.pwm_disable                            0x08003280   Section        0  timer1.o(i.pwm_disable)
    i.pwm_enable                             0x08003290   Section        0  timer1.o(i.pwm_enable)
    i.pwm_init                               0x080032a0   Section        0  timer1.o(i.pwm_init)
    i.pwm_pin_init                           0x080032b4   Section        0  timer1.o(i.pwm_pin_init)
    i.pwm_rcc_init                           0x080032f8   Section        0  timer1.o(i.pwm_rcc_init)
    i.pwm_reset_duty                         0x08003308   Section        0  timer1.o(i.pwm_reset_duty)
    i.pwm_tim_init                           0x0800337c   Section        0  timer1.o(i.pwm_tim_init)
    i.spd_pi_cal                             0x080034dc   Section        0  motor_control.o(i.spd_pi_cal)
    i.speed_calc_iq                          0x080035b8   Section        0  motor_control.o(i.speed_calc_iq)
    i.uart2_dma_config                       0x08003738   Section        0  dma2.o(i.uart2_dma_config)
    i.uart2_init                             0x080037f4   Section        0  dma2.o(i.uart2_init)
    i.usart2_dma_run                         0x08003894   Section        0  dma2.o(i.usart2_dma_run)
    i.usart2_recv_dma                        0x080038c0   Section        0  dma2.o(i.usart2_recv_dma)
    i.usart2_send_dma                        0x080038e4   Section        0  dma2.o(i.usart2_send_dma)
    sincos_table                             0x0800390c   Section     2052  IQtables.o(sincos_table)
    x$fpl$dadd                               0x08004110   Section      336  daddsub_clz.o(x$fpl$dadd)
    _dadd1                                   0x08004121   Thumb Code     0  daddsub_clz.o(x$fpl$dadd)
    x$fpl$ddiv                               0x08004260   Section      688  ddiv.o(x$fpl$ddiv)
    ddiv_entry                               0x08004267   Thumb Code     0  ddiv.o(x$fpl$ddiv)
    x$fpl$dfix                               0x08004510   Section       94  dfix.o(x$fpl$dfix)
    x$fpl$dflt                               0x0800456e   Section       46  dflt_clz.o(x$fpl$dflt)
    x$fpl$dfltu                              0x0800459c   Section       38  dflt_clz.o(x$fpl$dfltu)
    x$fpl$dmul                               0x080045c4   Section      340  dmul.o(x$fpl$dmul)
    x$fpl$dnaninf                            0x08004718   Section      156  dnaninf.o(x$fpl$dnaninf)
    x$fpl$dretinf                            0x080047b4   Section       12  dretinf.o(x$fpl$dretinf)
    x$fpl$dsub                               0x080047c0   Section      468  daddsub_clz.o(x$fpl$dsub)
    _dsub1                                   0x080047d1   Thumb Code     0  daddsub_clz.o(x$fpl$dsub)
    x$fpl$f2d                                0x08004994   Section       86  f2d.o(x$fpl$f2d)
    x$fpl$fadd                               0x080049ec   Section      196  faddsub_clz.o(x$fpl$fadd)
    _fadd1                                   0x080049fb   Thumb Code     0  faddsub_clz.o(x$fpl$fadd)
    x$fpl$fdiv                               0x08004ab0   Section      388  fdiv.o(x$fpl$fdiv)
    _fdiv1                                   0x08004ab1   Thumb Code     0  fdiv.o(x$fpl$fdiv)
    x$fpl$ffixu                              0x08004c34   Section       62  ffixu.o(x$fpl$ffixu)
    x$fpl$fflt                               0x08004c74   Section       48  fflt_clz.o(x$fpl$fflt)
    x$fpl$ffltu                              0x08004ca4   Section       38  fflt_clz.o(x$fpl$ffltu)
    x$fpl$fmul                               0x08004ccc   Section      258  fmul.o(x$fpl$fmul)
    x$fpl$fnaninf                            0x08004dce   Section      140  fnaninf.o(x$fpl$fnaninf)
    x$fpl$fretinf                            0x08004e5a   Section       10  fretinf.o(x$fpl$fretinf)
    x$fpl$fsub                               0x08004e64   Section      234  faddsub_clz.o(x$fpl$fsub)
    _fsub1                                   0x08004e73   Thumb Code     0  faddsub_clz.o(x$fpl$fsub)
    x$fpl$usenofp                            0x08004f4e   Section        0  usenofp.o(x$fpl$usenofp)
    .data                                    0x20000000   Section        5  usart1.o(.data)
    rc_tmp                                   0x20000000   Data           4  usart1.o(.data)
    .data                                    0x20000008   Section        8  usart3.o(.data)
    rc_tmp                                   0x20000008   Data           4  usart3.o(.data)
    .data                                    0x20000010   Section      336  motor_control.o(.data)
    rc_tmp                                   0x20000010   Data           4  motor_control.o(.data)
    record_spd_s6                            0x20000142   Data           2  motor_control.o(.data)
    spd_angle_ctr                            0x20000144   Data           2  motor_control.o(.data)
    spd_period_ctr                           0x20000146   Data           2  motor_control.o(.data)
    spd_pid_period_ctr                       0x20000148   Data           2  motor_control.o(.data)
    ang_pid_period_ctr                       0x2000014a   Data           2  motor_control.o(.data)
    ini_sticker                              0x20000150   Data           2  motor_control.o(.data)
    last_value                               0x20000158   Data           4  motor_control.o(.data)
    spd_temp                                 0x2000015c   Data           2  motor_control.o(.data)
    spd_dif_temp                             0x2000015e   Data           2  motor_control.o(.data)
    .data                                    0x20000160   Section        7  dma2.o(.data)
    .data                                    0x20000167   Section       20  stm32f10x_rcc.o(.data)
    APBAHBPrescTable                         0x20000167   Data          16  stm32f10x_rcc.o(.data)
    ADCPrescTable                            0x20000177   Data           4  stm32f10x_rcc.o(.data)
    .data                                    0x2000017c   Section        4  delay.o(.data)
    fac_us                                   0x2000017c   Data           1  delay.o(.data)
    fac_ms                                   0x2000017e   Data           2  delay.o(.data)
    .data                                    0x20000180   Section       20  system_stm32f10x.o(.data)
    .bss                                     0x20000194   Section      640  usart1.o(.bss)
    .bss                                     0x20000414   Section      640  usart2.o(.bss)
    .bss                                     0x20000694   Section      640  usart3.o(.bss)
    .bss                                     0x20000914   Section       20  ipark.o(.bss)
    .bss                                     0x20000928   Section       84  motor_control.o(.bss)
    .bss                                     0x2000097c   Section     1660  dma2.o(.bss)
    .bss                                     0x20000ff8   Section       96  libspace.o(.bss)
    HEAP                                     0x20001058   Section      512  startup_stm32f10x_md.o(HEAP)
    Heap_Mem                                 0x20001058   Data         512  startup_stm32f10x_md.o(HEAP)
    STACK                                    0x20001258   Section     1024  startup_stm32f10x_md.o(STACK)
    Stack_Mem                                0x20001258   Data        1024  startup_stm32f10x_md.o(STACK)
    __initial_sp                             0x20001658   Data           0  startup_stm32f10x_md.o(STACK)

    Global Symbols

    Symbol Name                              Value     Ov Type        Size  Object(Section)

    BuildAttributes$$THM_ISAv4$P$D$K$B$S$PE$A:L22UL41UL21$X:L11$S22US41US21$IEEE1$IW$USESV6$~STKCKD$USESV7$~SHL$OSPACE$ROPI$EBA8$UX$STANDARDLIB$REQ8$PRES8$EABIv2 0x00000000   Number         0  anon$$obj.o ABSOLUTE
    __ARM_use_no_argv                        0x00000000   Number         0  main.o ABSOLUTE
    __ARM_exceptions_init                     - Undefined Weak Reference
    __alloca_initialize                       - Undefined Weak Reference
    __arm_preinit_                            - Undefined Weak Reference
    __cpp_initialize__aeabi_                  - Undefined Weak Reference
    __cxa_finalize                            - Undefined Weak Reference
    __rt_locale                               - Undefined Weak Reference
    __sigvec_lookup                           - Undefined Weak Reference
    _atexit_init                              - Undefined Weak Reference
    _call_atexit_fns                          - Undefined Weak Reference
    _clock_init                               - Undefined Weak Reference
    _fp_trap_init                             - Undefined Weak Reference
    _fp_trap_shutdown                         - Undefined Weak Reference
    _get_lc_collate                           - Undefined Weak Reference
    _get_lc_ctype                             - Undefined Weak Reference
    _get_lc_monetary                          - Undefined Weak Reference
    _get_lc_numeric                           - Undefined Weak Reference
    _get_lc_time                              - Undefined Weak Reference
    _getenv_init                              - Undefined Weak Reference
    _handle_redirection                       - Undefined Weak Reference
    _init_alloc                               - Undefined Weak Reference
    _init_user_alloc                          - Undefined Weak Reference
    _initio                                   - Undefined Weak Reference
    _rand_init                                - Undefined Weak Reference
    _signal_finish                            - Undefined Weak Reference
    _signal_init                              - Undefined Weak Reference
    _terminate_alloc                          - Undefined Weak Reference
    _terminate_user_alloc                     - Undefined Weak Reference
    _terminateio                              - Undefined Weak Reference
    __Vectors_Size                           0x000000ec   Number         0  startup_stm32f10x_md.o ABSOLUTE
    __Vectors                                0x08000000   Data           4  startup_stm32f10x_md.o(RESET)
    __Vectors_End                            0x080000ec   Data           0  startup_stm32f10x_md.o(RESET)
    __main                                   0x080000ed   Thumb Code     8  __main.o(!!!main)
    __scatterload                            0x080000f5   Thumb Code     0  __scatter.o(!!!scatter)
    __scatterload_rt2                        0x080000f5   Thumb Code    44  __scatter.o(!!!scatter)
    __scatterload_rt2_thumb_only             0x080000f5   Thumb Code     0  __scatter.o(!!!scatter)
    __scatterload_null                       0x08000103   Thumb Code     0  __scatter.o(!!!scatter)
    __decompress                             0x08000129   Thumb Code    90  __dczerorl2.o(!!dczerorl2)
    __decompress1                            0x08000129   Thumb Code     0  __dczerorl2.o(!!dczerorl2)
    __scatterload_zeroinit                   0x08000185   Thumb Code    28  __scatter_zi.o(!!handler_zi)
    __rt_lib_init                            0x080001a1   Thumb Code     0  libinit.o(.ARM.Collect$$libinit$$00000000)
    __rt_lib_init_alloca_1                   0x080001a3   Thumb Code     0  libinit2.o(.ARM.Collect$$libinit$$0000002E)
    __rt_lib_init_argv_1                     0x080001a3   Thumb Code     0  libinit2.o(.ARM.Collect$$libinit$$0000002C)
    __rt_lib_init_atexit_1                   0x080001a3   Thumb Code     0  libinit2.o(.ARM.Collect$$libinit$$0000001B)
    __rt_lib_init_clock_1                    0x080001a3   Thumb Code     0  libinit2.o(.ARM.Collect$$libinit$$00000021)
    __rt_lib_init_cpp_1                      0x080001a3   Thumb Code     0  libinit2.o(.ARM.Collect$$libinit$$00000032)
    __rt_lib_init_exceptions_1               0x080001a3   Thumb Code     0  libinit2.o(.ARM.Collect$$libinit$$00000030)
    __rt_lib_init_fp_1                       0x080001a3   Thumb Code     0  libinit2.o(.ARM.Collect$$libinit$$00000002)
    __rt_lib_init_fp_trap_1                  0x080001a3   Thumb Code     0  libinit2.o(.ARM.Collect$$libinit$$0000001F)
    __rt_lib_init_getenv_1                   0x080001a3   Thumb Code     0  libinit2.o(.ARM.Collect$$libinit$$00000023)
    __rt_lib_init_heap_1                     0x080001a3   Thumb Code     0  libinit2.o(.ARM.Collect$$libinit$$0000000A)
    __rt_lib_init_lc_collate_1               0x080001a3   Thumb Code     0  libinit2.o(.ARM.Collect$$libinit$$00000011)
    __rt_lib_init_lc_ctype_1                 0x080001a3   Thumb Code     0  libinit2.o(.ARM.Collect$$libinit$$00000013)
    __rt_lib_init_lc_monetary_1              0x080001a3   Thumb Code     0  libinit2.o(.ARM.Collect$$libinit$$00000015)
    __rt_lib_init_lc_numeric_1               0x080001a3   Thumb Code     0  libinit2.o(.ARM.Collect$$libinit$$00000017)
    __rt_lib_init_lc_time_1                  0x080001a3   Thumb Code     0  libinit2.o(.ARM.Collect$$libinit$$00000019)
    __rt_lib_init_preinit_1                  0x080001a3   Thumb Code     0  libinit2.o(.ARM.Collect$$libinit$$00000004)
    __rt_lib_init_rand_1                     0x080001a3   Thumb Code     0  libinit2.o(.ARM.Collect$$libinit$$0000000E)
    __rt_lib_init_return                     0x080001a3   Thumb Code     0  libinit2.o(.ARM.Collect$$libinit$$00000033)
    __rt_lib_init_signal_1                   0x080001a3   Thumb Code     0  libinit2.o(.ARM.Collect$$libinit$$0000001D)
    __rt_lib_init_stdio_1                    0x080001a3   Thumb Code     0  libinit2.o(.ARM.Collect$$libinit$$00000025)
    __rt_lib_init_user_alloc_1               0x080001a3   Thumb Code     0  libinit2.o(.ARM.Collect$$libinit$$0000000C)
    __rt_lib_shutdown                        0x080001a5   Thumb Code     0  libshutdown.o(.ARM.Collect$$libshutdown$$00000000)
    __rt_lib_shutdown_cpp_1                  0x080001a7   Thumb Code     0  libshutdown2.o(.ARM.Collect$$libshutdown$$00000002)
    __rt_lib_shutdown_fp_trap_1              0x080001a7   Thumb Code     0  libshutdown2.o(.ARM.Collect$$libshutdown$$00000007)
    __rt_lib_shutdown_heap_1                 0x080001a7   Thumb Code     0  libshutdown2.o(.ARM.Collect$$libshutdown$$0000000F)
    __rt_lib_shutdown_return                 0x080001a7   Thumb Code     0  libshutdown2.o(.ARM.Collect$$libshutdown$$00000010)
    __rt_lib_shutdown_signal_1               0x080001a7   Thumb Code     0  libshutdown2.o(.ARM.Collect$$libshutdown$$0000000A)
    __rt_lib_shutdown_stdio_1                0x080001a7   Thumb Code     0  libshutdown2.o(.ARM.Collect$$libshutdown$$00000004)
    __rt_lib_shutdown_user_alloc_1           0x080001a7   Thumb Code     0  libshutdown2.o(.ARM.Collect$$libshutdown$$0000000C)
    __rt_entry                               0x080001a9   Thumb Code     0  __rtentry.o(.ARM.Collect$$rtentry$$00000000)
    __rt_entry_presh_1                       0x080001a9   Thumb Code     0  __rtentry2.o(.ARM.Collect$$rtentry$$00000002)
    __rt_entry_sh                            0x080001a9   Thumb Code     0  __rtentry4.o(.ARM.Collect$$rtentry$$00000004)
    __rt_entry_li                            0x080001af   Thumb Code     0  __rtentry2.o(.ARM.Collect$$rtentry$$0000000A)
    __rt_entry_postsh_1                      0x080001af   Thumb Code     0  __rtentry2.o(.ARM.Collect$$rtentry$$00000009)
    __rt_entry_main                          0x080001b3   Thumb Code     0  __rtentry2.o(.ARM.Collect$$rtentry$$0000000D)
    __rt_entry_postli_1                      0x080001b3   Thumb Code     0  __rtentry2.o(.ARM.Collect$$rtentry$$0000000C)
    __rt_exit                                0x080001bb   Thumb Code     0  rtexit.o(.ARM.Collect$$rtexit$$00000000)
    __rt_exit_ls                             0x080001bd   Thumb Code     0  rtexit2.o(.ARM.Collect$$rtexit$$00000003)
    __rt_exit_prels_1                        0x080001bd   Thumb Code     0  rtexit2.o(.ARM.Collect$$rtexit$$00000002)
    __rt_exit_exit                           0x080001c1   Thumb Code     0  rtexit2.o(.ARM.Collect$$rtexit$$00000004)
    Reset_Handler                            0x080001c9   Thumb Code     8  startup_stm32f10x_md.o(.text)
    ADC1_2_IRQHandler                        0x080001e3   Thumb Code     0  startup_stm32f10x_md.o(.text)
    CAN1_RX1_IRQHandler                      0x080001e3   Thumb Code     0  startup_stm32f10x_md.o(.text)
    CAN1_SCE_IRQHandler                      0x080001e3   Thumb Code     0  startup_stm32f10x_md.o(.text)
    DMA1_Channel1_IRQHandler                 0x080001e3   Thumb Code     0  startup_stm32f10x_md.o(.text)
    DMA1_Channel2_IRQHandler                 0x080001e3   Thumb Code     0  startup_stm32f10x_md.o(.text)
    DMA1_Channel3_IRQHandler                 0x080001e3   Thumb Code     0  startup_stm32f10x_md.o(.text)
    DMA1_Channel4_IRQHandler                 0x080001e3   Thumb Code     0  startup_stm32f10x_md.o(.text)
    DMA1_Channel5_IRQHandler                 0x080001e3   Thumb Code     0  startup_stm32f10x_md.o(.text)
    DMA1_Channel6_IRQHandler                 0x080001e3   Thumb Code     0  startup_stm32f10x_md.o(.text)
    EXTI15_10_IRQHandler                     0x080001e3   Thumb Code     0  startup_stm32f10x_md.o(.text)
    EXTI1_IRQHandler                         0x080001e3   Thumb Code     0  startup_stm32f10x_md.o(.text)
    EXTI2_IRQHandler                         0x080001e3   Thumb Code     0  startup_stm32f10x_md.o(.text)
    EXTI3_IRQHandler                         0x080001e3   Thumb Code     0  startup_stm32f10x_md.o(.text)
    FLASH_IRQHandler                         0x080001e3   Thumb Code     0  startup_stm32f10x_md.o(.text)
    I2C1_ER_IRQHandler                       0x080001e3   Thumb Code     0  startup_stm32f10x_md.o(.text)
    I2C1_EV_IRQHandler                       0x080001e3   Thumb Code     0  startup_stm32f10x_md.o(.text)
    I2C2_ER_IRQHandler                       0x080001e3   Thumb Code     0  startup_stm32f10x_md.o(.text)
    I2C2_EV_IRQHandler                       0x080001e3   Thumb Code     0  startup_stm32f10x_md.o(.text)
    PVD_IRQHandler                           0x080001e3   Thumb Code     0  startup_stm32f10x_md.o(.text)
    RCC_IRQHandler                           0x080001e3   Thumb Code     0  startup_stm32f10x_md.o(.text)
    RTCAlarm_IRQHandler                      0x080001e3   Thumb Code     0  startup_stm32f10x_md.o(.text)
    RTC_IRQHandler                           0x080001e3   Thumb Code     0  startup_stm32f10x_md.o(.text)
    SPI1_IRQHandler                          0x080001e3   Thumb Code     0  startup_stm32f10x_md.o(.text)
    SPI2_IRQHandler                          0x080001e3   Thumb Code     0  startup_stm32f10x_md.o(.text)
    TAMPER_IRQHandler                        0x080001e3   Thumb Code     0  startup_stm32f10x_md.o(.text)
    TIM1_BRK_IRQHandler                      0x080001e3   Thumb Code     0  startup_stm32f10x_md.o(.text)
    TIM1_CC_IRQHandler                       0x080001e3   Thumb Code     0  startup_stm32f10x_md.o(.text)
    TIM1_TRG_COM_IRQHandler                  0x080001e3   Thumb Code     0  startup_stm32f10x_md.o(.text)
    TIM2_IRQHandler                          0x080001e3   Thumb Code     0  startup_stm32f10x_md.o(.text)
    TIM4_IRQHandler                          0x080001e3   Thumb Code     0  startup_stm32f10x_md.o(.text)
    USBWakeUp_IRQHandler                     0x080001e3   Thumb Code     0  startup_stm32f10x_md.o(.text)
    USB_HP_CAN1_TX_IRQHandler                0x080001e3   Thumb Code     0  startup_stm32f10x_md.o(.text)
    USB_LP_CAN1_RX0_IRQHandler               0x080001e3   Thumb Code     0  startup_stm32f10x_md.o(.text)
    WWDG_IRQHandler                          0x080001e3   Thumb Code     0  startup_stm32f10x_md.o(.text)
    __user_initial_stackheap                 0x080001e5   Thumb Code     0  startup_stm32f10x_md.o(.text)
    __use_two_region_memory                  0x08000209   Thumb Code     2  heapauxi.o(.text)
    __rt_heap_escrow$2region                 0x0800020b   Thumb Code     2  heapauxi.o(.text)
    __rt_heap_expand$2region                 0x0800020d   Thumb Code     2  heapauxi.o(.text)
    __user_setup_stackheap                   0x0800020f   Thumb Code    74  sys_stackheap_outer.o(.text)
    exit                                     0x08000259   Thumb Code    18  exit.o(.text)
    __user_libspace                          0x0800026d   Thumb Code     8  libspace.o(.text)
    __user_perproc_libspace                  0x0800026d   Thumb Code     0  libspace.o(.text)
    __user_perthread_libspace                0x0800026d   Thumb Code     0  libspace.o(.text)
    _sys_exit                                0x08000275   Thumb Code     8  sys_exit.o(.text)
    __I$use$semihosting                      0x08000281   Thumb Code     0  use_no_semi.o(.text)
    __use_no_semihosting_swi                 0x08000281   Thumb Code     2  use_no_semi.o(.text)
    __semihosting_library_function           0x08000283   Thumb Code     0  indicate_semi.o(.text)
    _IQ15cosPU                               0x08000285   Thumb Code     0  IQNcosPU.o(_IQ15cosPU)
    _IQ15div                                 0x08000305   Thumb Code     0  IQNdiv.o(_IQ15div)
    _IQ15mpy                                 0x08000395   Thumb Code     0  IQNmpy.o(_IQ15mpy)
    _IQ15sinPU                               0x080003a5   Thumb Code     0  IQNsinPU.o(_IQ15sinPU)
    _IQ15toF                                 0x08000421   Thumb Code     0  IQNtoF.o(_IQ15toF)
    ADC_Cmd                                  0x08000445   Thumb Code    22  stm32f10x_adc.o(i.ADC_Cmd)
    ADC_DeInit                               0x0800045d   Thumb Code    78  stm32f10x_adc.o(i.ADC_DeInit)
    ADC_GetCalibrationStatus                 0x080004b9   Thumb Code    20  stm32f10x_adc.o(i.ADC_GetCalibrationStatus)
    ADC_GetConversionValue                   0x080004cd   Thumb Code     8  stm32f10x_adc.o(i.ADC_GetConversionValue)
    ADC_GetFlagStatus                        0x080004d5   Thumb Code    18  stm32f10x_adc.o(i.ADC_GetFlagStatus)
    ADC_GetResetCalibrationStatus            0x080004e7   Thumb Code    20  stm32f10x_adc.o(i.ADC_GetResetCalibrationStatus)
    ADC_Init                                 0x080004fd   Thumb Code    70  stm32f10x_adc.o(i.ADC_Init)
    ADC_RegularChannelConfig                 0x0800054d   Thumb Code   184  stm32f10x_adc.o(i.ADC_RegularChannelConfig)
    ADC_ResetCalibration                     0x08000605   Thumb Code    10  stm32f10x_adc.o(i.ADC_ResetCalibration)
    ADC_SoftwareStartConvCmd                 0x0800060f   Thumb Code    22  stm32f10x_adc.o(i.ADC_SoftwareStartConvCmd)
    ADC_StartCalibration                     0x08000625   Thumb Code    10  stm32f10x_adc.o(i.ADC_StartCalibration)
    AS5600_Read_Len                          0x0800062f   Thumb Code   116  as5600.o(i.AS5600_Read_Len)
    Adc_Init                                 0x080006a5   Thumb Code   210  adc.o(i.Adc_Init)
    BusFault_Handler                         0x08000785   Thumb Code     4  stm32f10x_it.o(i.BusFault_Handler)
    DMA1_Channel7_IRQHandler                 0x08000789   Thumb Code    36  dma2.o(i.DMA1_Channel7_IRQHandler)
    DMA_ClearITPendingBit                    0x080007b5   Thumb Code    18  stm32f10x_dma.o(i.DMA_ClearITPendingBit)
    DMA_Cmd                                  0x080007d1   Thumb Code    24  stm32f10x_dma.o(i.DMA_Cmd)
    DMA_DeInit                               0x080007e9   Thumb Code   324  stm32f10x_dma.o(i.DMA_DeInit)
    DMA_GetITStatus                          0x08000935   Thumb Code    36  stm32f10x_dma.o(i.DMA_GetITStatus)
    DMA_ITConfig                             0x08000961   Thumb Code    18  stm32f10x_dma.o(i.DMA_ITConfig)
    DMA_Init                                 0x08000973   Thumb Code    60  stm32f10x_dma.o(i.DMA_Init)
    DMA_SetCurrDataCounter                   0x080009af   Thumb Code     4  stm32f10x_dma.o(i.DMA_SetCurrDataCounter)
    DebugMon_Handler                         0x080009b3   Thumb Code     2  stm32f10x_it.o(i.DebugMon_Handler)
    EXTI0_IRQHandler                         0x080009b5   Thumb Code    20  exti.o(i.EXTI0_IRQHandler)
    EXTI4_IRQHandler                         0x080009cd   Thumb Code    64  exti.o(i.EXTI4_IRQHandler)
    EXTI9_5_IRQHandler                       0x08000a19   Thumb Code    26  exti.o(i.EXTI9_5_IRQHandler)
    EXTI_ClearITPendingBit                   0x08000a39   Thumb Code     6  stm32f10x_exti.o(i.EXTI_ClearITPendingBit)
    EXTI_Init                                0x08000a45   Thumb Code   142  stm32f10x_exti.o(i.EXTI_Init)
    EXTI_KEY_Config                          0x08000ad9   Thumb Code   110  exti.o(i.EXTI_KEY_Config)
    EXTI_KEY_NVIC_Config                     0x08000b4d   Thumb Code    62  nvic.o(i.EXTI_KEY_NVIC_Config)
    GPIO_EXTILineConfig                      0x08000b8d   Thumb Code    60  stm32f10x_gpio.o(i.GPIO_EXTILineConfig)
    GPIO_Init                                0x08000bcd   Thumb Code   278  stm32f10x_gpio.o(i.GPIO_Init)
    GPIO_ResetBits                           0x08000ce3   Thumb Code     4  stm32f10x_gpio.o(i.GPIO_ResetBits)
    Get_Adc1                                 0x08000ce9   Thumb Code    46  adc.o(i.Get_Adc1)
    Get_Adc2                                 0x08000d1d   Thumb Code    46  adc.o(i.Get_Adc2)
    HardFault_Handler                        0x08000d51   Thumb Code     4  stm32f10x_it.o(i.HardFault_Handler)
    IIC_Ack                                  0x08000d55   Thumb Code    58  myiic.o(i.IIC_Ack)
    IIC_Init                                 0x08000d9d   Thumb Code    50  myiic.o(i.IIC_Init)
    IIC_NAck                                 0x08000ddd   Thumb Code    56  myiic.o(i.IIC_NAck)
    IIC_Read_Byte                            0x08000e21   Thumb Code    92  myiic.o(i.IIC_Read_Byte)
    IIC_Send_Byte                            0x08000e89   Thumb Code    76  myiic.o(i.IIC_Send_Byte)
    IIC_Start                                0x08000ee1   Thumb Code    58  myiic.o(i.IIC_Start)
    IIC_Stop                                 0x08000f29   Thumb Code    56  myiic.o(i.IIC_Stop)
    IIC_Wait_Ack                             0x08000f6d   Thumb Code    76  myiic.o(i.IIC_Wait_Ack)
    IQtoABS0_1                               0x08000fc5   Thumb Code    10  timer1.o(i.IQtoABS0_1)
    LED_INIT                                 0x08000fd1   Thumb Code    88  led.o(i.LED_INIT)
    MemManage_Handler                        0x08001031   Thumb Code     4  stm32f10x_it.o(i.MemManage_Handler)
    NMI_Handler                              0x08001035   Thumb Code     2  stm32f10x_it.o(i.NMI_Handler)
    NVIC_Config                              0x08001037   Thumb Code    94  nvic.o(i.NVIC_Config)
    NVIC_Init                                0x08001095   Thumb Code   100  misc.o(i.NVIC_Init)
    NVIC_PriorityGroupConfig                 0x08001105   Thumb Code    10  misc.o(i.NVIC_PriorityGroupConfig)
    PendSV_Handler                           0x08001119   Thumb Code     2  stm32f10x_it.o(i.PendSV_Handler)
    RCC_ADCCLKConfig                         0x0800111d   Thumb Code    18  stm32f10x_rcc.o(i.RCC_ADCCLKConfig)
    RCC_AHBPeriphClockCmd                    0x08001135   Thumb Code    26  stm32f10x_rcc.o(i.RCC_AHBPeriphClockCmd)
    RCC_APB1PeriphClockCmd                   0x08001155   Thumb Code    26  stm32f10x_rcc.o(i.RCC_APB1PeriphClockCmd)
    RCC_APB1PeriphResetCmd                   0x08001175   Thumb Code    26  stm32f10x_rcc.o(i.RCC_APB1PeriphResetCmd)
    RCC_APB2PeriphClockCmd                   0x08001195   Thumb Code    26  stm32f10x_rcc.o(i.RCC_APB2PeriphClockCmd)
    RCC_APB2PeriphResetCmd                   0x080011b5   Thumb Code    26  stm32f10x_rcc.o(i.RCC_APB2PeriphResetCmd)
    RCC_GetClocksFreq                        0x080011d5   Thumb Code   192  stm32f10x_rcc.o(i.RCC_GetClocksFreq)
    SVC_Handler                              0x080012a9   Thumb Code     2  stm32f10x_it.o(i.SVC_Handler)
    SysTick_CLKSourceConfig                  0x08001395   Thumb Code    40  misc.o(i.SysTick_CLKSourceConfig)
    SysTick_Handler                          0x080013bd   Thumb Code     2  stm32f10x_it.o(i.SysTick_Handler)
    SystemInit                               0x080013c1   Thumb Code    78  system_stm32f10x.o(i.SystemInit)
    TIM1_NVIC_Config                         0x08001421   Thumb Code    34  nvic.o(i.TIM1_NVIC_Config)
    TIM1_UP_IRQHandler                       0x08001445   Thumb Code    96  timer1.o(i.TIM1_UP_IRQHandler)
    TIM2_NVIC_Config                         0x080014b1   Thumb Code    30  nvic.o(i.TIM2_NVIC_Config)
    TIM3_IRQHandler                          0x080014d1   Thumb Code   648  timer.o(i.TIM3_IRQHandler)
    TIM3_Init                                0x08001789   Thumb Code    98  timer.o(i.TIM3_Init)
    TIM3_NVIC_Config                         0x080017f1   Thumb Code    32  nvic.o(i.TIM3_NVIC_Config)
    TIM4_NVIC_Config                         0x08001811   Thumb Code    34  nvic.o(i.TIM4_NVIC_Config)
    TIM_ARRPreloadConfig                     0x08001833   Thumb Code    24  stm32f10x_tim.o(i.TIM_ARRPreloadConfig)
    TIM_BDTRConfig                           0x0800184b   Thumb Code    32  stm32f10x_tim.o(i.TIM_BDTRConfig)
    TIM_CCPreloadControl                     0x0800186b   Thumb Code    24  stm32f10x_tim.o(i.TIM_CCPreloadControl)
    TIM_ClearFlag                            0x08001883   Thumb Code     6  stm32f10x_tim.o(i.TIM_ClearFlag)
    TIM_Cmd                                  0x08001889   Thumb Code    24  stm32f10x_tim.o(i.TIM_Cmd)
    TIM_CtrlPWMOutputs                       0x080018a1   Thumb Code    30  stm32f10x_tim.o(i.TIM_CtrlPWMOutputs)
    TIM_DeInit                               0x080018c1   Thumb Code   424  stm32f10x_tim.o(i.TIM_DeInit)
    TIM_GetITStatus                          0x08001aa9   Thumb Code    34  stm32f10x_tim.o(i.TIM_GetITStatus)
    TIM_ITConfig                             0x08001acb   Thumb Code    18  stm32f10x_tim.o(i.TIM_ITConfig)
    TIM_OC1Init                              0x08001add   Thumb Code   132  stm32f10x_tim.o(i.TIM_OC1Init)
    TIM_OC1PreloadConfig                     0x08001b75   Thumb Code    18  stm32f10x_tim.o(i.TIM_OC1PreloadConfig)
    TIM_OC2Init                              0x08001b89   Thumb Code   154  stm32f10x_tim.o(i.TIM_OC2Init)
    TIM_OC2PreloadConfig                     0x08001c2d   Thumb Code    26  stm32f10x_tim.o(i.TIM_OC2PreloadConfig)
    TIM_OC3Init                              0x08001c49   Thumb Code   150  stm32f10x_tim.o(i.TIM_OC3Init)
    TIM_OC3PreloadConfig                     0x08001ce9   Thumb Code    18  stm32f10x_tim.o(i.TIM_OC3PreloadConfig)
    TIM_TimeBaseInit                         0x08001cfd   Thumb Code   122  stm32f10x_tim.o(i.TIM_TimeBaseInit)
    USART1_IRQHandler                        0x08001da1   Thumb Code    78  usart1.o(i.USART1_IRQHandler)
    USART1_NVIC_Config                       0x08001dfd   Thumb Code    32  nvic.o(i.USART1_NVIC_Config)
    USART1_info_deal                         0x08001e1d   Thumb Code     2  usart1.o(i.USART1_info_deal)
    USART2_IRQHandler                        0x08001e21   Thumb Code    48  dma2.o(i.USART2_IRQHandler)
    USART2_NVIC_Config                       0x08001e59   Thumb Code    34  nvic.o(i.USART2_NVIC_Config)
    USART2_info_deal                         0x08001e7d   Thumb Code  1534  usart2.o(i.USART2_info_deal)
    USART3_IRQHandler                        0x08002499   Thumb Code    84  usart3.o(i.USART3_IRQHandler)
    USART3_NVIC_Config                       0x080024f9   Thumb Code    30  nvic.o(i.USART3_NVIC_Config)
    USART3_data_translate                    0x08002517   Thumb Code     2  usart3.o(i.USART3_data_translate)
    USART3_info_deal                         0x08002519   Thumb Code    52  usart3.o(i.USART3_info_deal)
    USART_ClearFlag                          0x08002551   Thumb Code    18  stm32f10x_usart.o(i.USART_ClearFlag)
    USART_ClearITPendingBit                  0x08002563   Thumb Code    30  stm32f10x_usart.o(i.USART_ClearITPendingBit)
    USART_Cmd                                0x08002581   Thumb Code    24  stm32f10x_usart.o(i.USART_Cmd)
    USART_DMACmd                             0x08002599   Thumb Code    18  stm32f10x_usart.o(i.USART_DMACmd)
    USART_GetITStatus                        0x080025ab   Thumb Code    84  stm32f10x_usart.o(i.USART_GetITStatus)
    USART_ITConfig                           0x080025ff   Thumb Code    74  stm32f10x_usart.o(i.USART_ITConfig)
    USART_Init                               0x08002649   Thumb Code   210  stm32f10x_usart.o(i.USART_Init)
    UsageFault_Handler                       0x08002721   Thumb Code     4  stm32f10x_it.o(i.UsageFault_Handler)
    ang_pi_cal                               0x08002725   Thumb Code   246  motor_control.o(i.ang_pi_cal)
    clear_pi                                 0x08002831   Thumb Code    28  motor_control.o(i.clear_pi)
    clr_ctl_vrbs                             0x0800285d   Thumb Code    76  motor_control.o(i.clr_ctl_vrbs)
    commond_start                            0x080028cd   Thumb Code    44  motor_control.o(i.commond_start)
    commond_stop                             0x08002901   Thumb Code    14  motor_control.o(i.commond_stop)
    crose_zero_iq                            0x08002915   Thumb Code   122  motor_control.o(i.crose_zero_iq)
    ctl_struc_init                           0x08002999   Thumb Code   118  motor_control.o(i.ctl_struc_init)
    cur_pi_cal                               0x08002a45   Thumb Code   272  motor_control.o(i.cur_pi_cal)
    delay_init                               0x08002b61   Thumb Code    50  delay.o(i.delay_init)
    delay_ms                                 0x08002ba5   Thumb Code    72  delay.o(i.delay_ms)
    delay_us                                 0x08002bf1   Thumb Code    72  delay.o(i.delay_us)
    get_angle_u16                            0x08002c3d   Thumb Code    30  as5600.o(i.get_angle_u16)
    get_el_angle_iq                          0x08002c5d   Thumb Code    48  as5600.o(i.get_el_angle_iq)
    init_angle                               0x08002c99   Thumb Code   384  motor_control.o(i.init_angle)
    ipark_calc                               0x08002e39   Thumb Code    70  ipark.o(i.ipark_calc)
    main                                     0x08002e7f   Thumb Code    58  main.o(i.main)
    motor_control                            0x08002eb9   Thumb Code   780  motor_control.o(i.motor_control)
    over_cur_proctect                        0x0800321d   Thumb Code    90  motor_control.o(i.over_cur_proctect)
    pwm_cnt_irq_init                         0x0800327d   Thumb Code     2  timer1.o(i.pwm_cnt_irq_init)
    pwm_disable                              0x08003281   Thumb Code    12  timer1.o(i.pwm_disable)
    pwm_enable                               0x08003291   Thumb Code    12  timer1.o(i.pwm_enable)
    pwm_init                                 0x080032a1   Thumb Code    20  timer1.o(i.pwm_init)
    pwm_pin_init                             0x080032b5   Thumb Code    60  timer1.o(i.pwm_pin_init)
    pwm_rcc_init                             0x080032f9   Thumb Code    14  timer1.o(i.pwm_rcc_init)
    pwm_reset_duty                           0x08003309   Thumb Code   102  timer1.o(i.pwm_reset_duty)
    pwm_tim_init                             0x0800337d   Thumb Code   338  timer1.o(i.pwm_tim_init)
    spd_pi_cal                               0x080034dd   Thumb Code   202  motor_control.o(i.spd_pi_cal)
    speed_calc_iq                            0x080035b9   Thumb Code   350  motor_control.o(i.speed_calc_iq)
    uart2_dma_config                         0x08003739   Thumb Code   172  dma2.o(i.uart2_dma_config)
    uart2_init                               0x080037f5   Thumb Code   150  dma2.o(i.uart2_init)
    usart2_dma_run                           0x08003895   Thumb Code    36  dma2.o(i.usart2_dma_run)
    usart2_recv_dma                          0x080038c1   Thumb Code    30  dma2.o(i.usart2_recv_dma)
    usart2_send_dma                          0x080038e5   Thumb Code    30  dma2.o(i.usart2_send_dma)
    sincos_table                             0x0800390c   Data           0  IQtables.o(sincos_table)
    __aeabi_dadd                             0x08004111   Thumb Code     0  daddsub_clz.o(x$fpl$dadd)
    _dadd                                    0x08004111   Thumb Code   332  daddsub_clz.o(x$fpl$dadd)
    __aeabi_ddiv                             0x08004261   Thumb Code     0  ddiv.o(x$fpl$ddiv)
    _ddiv                                    0x08004261   Thumb Code   552  ddiv.o(x$fpl$ddiv)
    __aeabi_d2iz                             0x08004511   Thumb Code     0  dfix.o(x$fpl$dfix)
    _dfix                                    0x08004511   Thumb Code    94  dfix.o(x$fpl$dfix)
    __aeabi_i2d                              0x0800456f   Thumb Code     0  dflt_clz.o(x$fpl$dflt)
    _dflt                                    0x0800456f   Thumb Code    46  dflt_clz.o(x$fpl$dflt)
    __aeabi_ui2d                             0x0800459d   Thumb Code     0  dflt_clz.o(x$fpl$dfltu)
    _dfltu                                   0x0800459d   Thumb Code    38  dflt_clz.o(x$fpl$dfltu)
    __aeabi_dmul                             0x080045c5   Thumb Code     0  dmul.o(x$fpl$dmul)
    _dmul                                    0x080045c5   Thumb Code   332  dmul.o(x$fpl$dmul)
    __fpl_dnaninf                            0x08004719   Thumb Code   156  dnaninf.o(x$fpl$dnaninf)
    __fpl_dretinf                            0x080047b5   Thumb Code    12  dretinf.o(x$fpl$dretinf)
    __aeabi_dsub                             0x080047c1   Thumb Code     0  daddsub_clz.o(x$fpl$dsub)
    _dsub                                    0x080047c1   Thumb Code   464  daddsub_clz.o(x$fpl$dsub)
    __aeabi_f2d                              0x08004995   Thumb Code     0  f2d.o(x$fpl$f2d)
    _f2d                                     0x08004995   Thumb Code    86  f2d.o(x$fpl$f2d)
    __aeabi_fadd                             0x080049ed   Thumb Code     0  faddsub_clz.o(x$fpl$fadd)
    _fadd                                    0x080049ed   Thumb Code   196  faddsub_clz.o(x$fpl$fadd)
    __aeabi_fdiv                             0x08004ab1   Thumb Code     0  fdiv.o(x$fpl$fdiv)
    _fdiv                                    0x08004ab1   Thumb Code   384  fdiv.o(x$fpl$fdiv)
    __aeabi_f2uiz                            0x08004c35   Thumb Code     0  ffixu.o(x$fpl$ffixu)
    _ffixu                                   0x08004c35   Thumb Code    62  ffixu.o(x$fpl$ffixu)
    __aeabi_i2f                              0x08004c75   Thumb Code     0  fflt_clz.o(x$fpl$fflt)
    _fflt                                    0x08004c75   Thumb Code    48  fflt_clz.o(x$fpl$fflt)
    __aeabi_ui2f                             0x08004ca5   Thumb Code     0  fflt_clz.o(x$fpl$ffltu)
    _ffltu                                   0x08004ca5   Thumb Code    38  fflt_clz.o(x$fpl$ffltu)
    __aeabi_fmul                             0x08004ccd   Thumb Code     0  fmul.o(x$fpl$fmul)
    _fmul                                    0x08004ccd   Thumb Code   258  fmul.o(x$fpl$fmul)
    __fpl_fnaninf                            0x08004dcf   Thumb Code   140  fnaninf.o(x$fpl$fnaninf)
    __fpl_fretinf                            0x08004e5b   Thumb Code    10  fretinf.o(x$fpl$fretinf)
    __aeabi_fsub                             0x08004e65   Thumb Code     0  faddsub_clz.o(x$fpl$fsub)
    _fsub                                    0x08004e65   Thumb Code   234  faddsub_clz.o(x$fpl$fsub)
    __I$use$fp                               0x08004f4e   Number         0  usenofp.o(x$fpl$usenofp)
    Region$$Table$$Base                      0x08004f50   Number         0  anon$$obj.o(Region$$Table)
    Region$$Table$$Limit                     0x08004f70   Number         0  anon$$obj.o(Region$$Table)
    USART1_RX_CNT                            0x20000004   Data           1  usart1.o(.data)
    USART3_RX_CNT                            0x2000000c   Data           1  usart3.o(.data)
    Speed                                    0x2000000d   Data           1  usart3.o(.data)
    servo_error_arc                          0x2000000e   Data           1  usart3.o(.data)
    Delay_Run                                0x2000000f   Data           1  usart3.o(.data)
    RUN_FLAG                                 0x20000014   Data           1  motor_control.o(.data)
    RUN_LEVEL                                0x20000015   Data           1  motor_control.o(.data)
    PWM_FRQ                                  0x20000016   Data           2  motor_control.o(.data)
    ID_SET                                   0x20000018   Data           4  motor_control.o(.data)
    IQ_SET                                   0x2000001c   Data           4  motor_control.o(.data)
    ANG_SET                                  0x20000020   Data           4  motor_control.o(.data)
    SPD_SET                                  0x20000024   Data           4  motor_control.o(.data)
    ANGLE_OFFEST                             0x20000028   Data           4  motor_control.o(.data)
    ANG_KP                                   0x2000002c   Data           4  motor_control.o(.data)
    ANG_KI                                   0x20000030   Data           4  motor_control.o(.data)
    SPD_KP                                   0x20000034   Data           4  motor_control.o(.data)
    SPD_KI                                   0x20000038   Data           4  motor_control.o(.data)
    ID_KP                                    0x2000003c   Data           4  motor_control.o(.data)
    ID_KI                                    0x20000040   Data           4  motor_control.o(.data)
    IQ_KP                                    0x20000044   Data           4  motor_control.o(.data)
    IQ_KI                                    0x20000048   Data           4  motor_control.o(.data)
    rc1                                      0x2000004c   Data          28  motor_control.o(.data)
    rg1                                      0x20000068   Data          24  motor_control.o(.data)
    pi_ang1                                  0x20000080   Data          48  motor_control.o(.data)
    pi_id1                                   0x200000b0   Data          48  motor_control.o(.data)
    pi_iq1                                   0x200000e0   Data          48  motor_control.o(.data)
    pi_spd1                                  0x20000110   Data          48  motor_control.o(.data)
    cross_zero_flag                          0x20000140   Data           1  motor_control.o(.data)
    spd_temp                                 0x2000014c   Data           4  motor_control.o(.data)
    ini_angle_temp                           0x20000154   Data           4  motor_control.o(.data)
    uart2_recv_flag                          0x20000160   Data           1  dma2.o(.data)
    uart2_recv_len                           0x20000162   Data           2  dma2.o(.data)
    uart2_send_len                           0x20000164   Data           2  dma2.o(.data)
    uart2_send_flag                          0x20000166   Data           1  dma2.o(.data)
    SystemCoreClock                          0x20000180   Data           4  system_stm32f10x.o(.data)
    AHBPrescTable                            0x20000184   Data          16  system_stm32f10x.o(.data)
    USART1_RX_BUF                            0x20000194   Data         640  usart1.o(.bss)
    USART2_RX_BUF                            0x20000414   Data         640  usart2.o(.bss)
    USART3_RX_BUF                            0x20000694   Data         640  usart3.o(.bss)
    ipark_parameter                          0x20000914   Data          20  ipark.o(.bss)
    svpwm                                    0x20000928   Data          36  motor_control.o(.bss)
    clarke1                                  0x2000094c   Data          20  motor_control.o(.bss)
    park1                                    0x20000960   Data          28  motor_control.o(.bss)
    uart2_recv_data                          0x2000097c   Data         830  dma2.o(.bss)
    uart2_send_data                          0x20000cba   Data         830  dma2.o(.bss)
    __libspace_start                         0x20000ff8   Data          96  libspace.o(.bss)
    __temporary_stack_top$libspace           0x20001058   Data           0  libspace.o(.bss)



==============================================================================

Memory Map of the image

  Image Entry point : 0x080000ed

  Load Region LR_IROM1 (Base: 0x08000000, Size: 0x00005104, Max: 0x00010000, ABSOLUTE, COMPRESSED[0x00004fc0])

    Execution Region ER_IROM1 (Base: 0x08000000, Size: 0x00004f70, Max: 0x00010000, ABSOLUTE)

    Base Addr    Size         Type   Attr      Idx    E Section Name        Object

    0x08000000   0x000000ec   Data   RO           19    RESET               startup_stm32f10x_md.o
    0x080000ec   0x00000008   Code   RO         3665  * !!!main             c_w.l(__main.o)
    0x080000f4   0x00000034   Code   RO         3879    !!!scatter          c_w.l(__scatter.o)
    0x08000128   0x0000005a   Code   RO         3877    !!dczerorl2         c_w.l(__dczerorl2.o)
    0x08000182   0x00000002   PAD
    0x08000184   0x0000001c   Code   RO         3881    !!handler_zi        c_w.l(__scatter_zi.o)
    0x080001a0   0x00000002   Code   RO         3747    .ARM.Collect$$libinit$$00000000  c_w.l(libinit.o)
    0x080001a2   0x00000000   Code   RO         3754    .ARM.Collect$$libinit$$00000002  c_w.l(libinit2.o)
    0x080001a2   0x00000000   Code   RO         3756    .ARM.Collect$$libinit$$00000004  c_w.l(libinit2.o)
    0x080001a2   0x00000000   Code   RO         3759    .ARM.Collect$$libinit$$0000000A  c_w.l(libinit2.o)
    0x080001a2   0x00000000   Code   RO         3761    .ARM.Collect$$libinit$$0000000C  c_w.l(libinit2.o)
    0x080001a2   0x00000000   Code   RO         3763    .ARM.Collect$$libinit$$0000000E  c_w.l(libinit2.o)
    0x080001a2   0x00000000   Code   RO         3766    .ARM.Collect$$libinit$$00000011  c_w.l(libinit2.o)
    0x080001a2   0x00000000   Code   RO         3768    .ARM.Collect$$libinit$$00000013  c_w.l(libinit2.o)
    0x080001a2   0x00000000   Code   RO         3770    .ARM.Collect$$libinit$$00000015  c_w.l(libinit2.o)
    0x080001a2   0x00000000   Code   RO         3772    .ARM.Collect$$libinit$$00000017  c_w.l(libinit2.o)
    0x080001a2   0x00000000   Code   RO         3774    .ARM.Collect$$libinit$$00000019  c_w.l(libinit2.o)
    0x080001a2   0x00000000   Code   RO         3776    .ARM.Collect$$libinit$$0000001B  c_w.l(libinit2.o)
    0x080001a2   0x00000000   Code   RO         3778    .ARM.Collect$$libinit$$0000001D  c_w.l(libinit2.o)
    0x080001a2   0x00000000   Code   RO         3780    .ARM.Collect$$libinit$$0000001F  c_w.l(libinit2.o)
    0x080001a2   0x00000000   Code   RO         3782    .ARM.Collect$$libinit$$00000021  c_w.l(libinit2.o)
    0x080001a2   0x00000000   Code   RO         3784    .ARM.Collect$$libinit$$00000023  c_w.l(libinit2.o)
    0x080001a2   0x00000000   Code   RO         3786    .ARM.Collect$$libinit$$00000025  c_w.l(libinit2.o)
    0x080001a2   0x00000000   Code   RO         3790    .ARM.Collect$$libinit$$0000002C  c_w.l(libinit2.o)
    0x080001a2   0x00000000   Code   RO         3792    .ARM.Collect$$libinit$$0000002E  c_w.l(libinit2.o)
    0x080001a2   0x00000000   Code   RO         3794    .ARM.Collect$$libinit$$00000030  c_w.l(libinit2.o)
    0x080001a2   0x00000000   Code   RO         3796    .ARM.Collect$$libinit$$00000032  c_w.l(libinit2.o)
    0x080001a2   0x00000002   Code   RO         3797    .ARM.Collect$$libinit$$00000033  c_w.l(libinit2.o)
    0x080001a4   0x00000002   Code   RO         3817    .ARM.Collect$$libshutdown$$00000000  c_w.l(libshutdown.o)
    0x080001a6   0x00000000   Code   RO         3830    .ARM.Collect$$libshutdown$$00000002  c_w.l(libshutdown2.o)
    0x080001a6   0x00000000   Code   RO         3832    .ARM.Collect$$libshutdown$$00000004  c_w.l(libshutdown2.o)
    0x080001a6   0x00000000   Code   RO         3835    .ARM.Collect$$libshutdown$$00000007  c_w.l(libshutdown2.o)
    0x080001a6   0x00000000   Code   RO         3838    .ARM.Collect$$libshutdown$$0000000A  c_w.l(libshutdown2.o)
    0x080001a6   0x00000000   Code   RO         3840    .ARM.Collect$$libshutdown$$0000000C  c_w.l(libshutdown2.o)
    0x080001a6   0x00000000   Code   RO         3843    .ARM.Collect$$libshutdown$$0000000F  c_w.l(libshutdown2.o)
    0x080001a6   0x00000002   Code   RO         3844    .ARM.Collect$$libshutdown$$00000010  c_w.l(libshutdown2.o)
    0x080001a8   0x00000000   Code   RO         3713    .ARM.Collect$$rtentry$$00000000  c_w.l(__rtentry.o)
    0x080001a8   0x00000000   Code   RO         3724    .ARM.Collect$$rtentry$$00000002  c_w.l(__rtentry2.o)
    0x080001a8   0x00000006   Code   RO         3736    .ARM.Collect$$rtentry$$00000004  c_w.l(__rtentry4.o)
    0x080001ae   0x00000000   Code   RO         3726    .ARM.Collect$$rtentry$$00000009  c_w.l(__rtentry2.o)
    0x080001ae   0x00000004   Code   RO         3727    .ARM.Collect$$rtentry$$0000000A  c_w.l(__rtentry2.o)
    0x080001b2   0x00000000   Code   RO         3729    .ARM.Collect$$rtentry$$0000000C  c_w.l(__rtentry2.o)
    0x080001b2   0x00000008   Code   RO         3730    .ARM.Collect$$rtentry$$0000000D  c_w.l(__rtentry2.o)
    0x080001ba   0x00000002   Code   RO         3751    .ARM.Collect$$rtexit$$00000000  c_w.l(rtexit.o)
    0x080001bc   0x00000000   Code   RO         3799    .ARM.Collect$$rtexit$$00000002  c_w.l(rtexit2.o)
    0x080001bc   0x00000004   Code   RO         3800    .ARM.Collect$$rtexit$$00000003  c_w.l(rtexit2.o)
    0x080001c0   0x00000006   Code   RO         3801    .ARM.Collect$$rtexit$$00000004  c_w.l(rtexit2.o)
    0x080001c6   0x00000002   PAD
    0x080001c8   0x00000040   Code   RO           20    .text               startup_stm32f10x_md.o
    0x08000208   0x00000006   Code   RO         3663    .text               c_w.l(heapauxi.o)
    0x0800020e   0x0000004a   Code   RO         3738    .text               c_w.l(sys_stackheap_outer.o)
    0x08000258   0x00000012   Code   RO         3740    .text               c_w.l(exit.o)
    0x0800026a   0x00000002   PAD
    0x0800026c   0x00000008   Code   RO         3748    .text               c_w.l(libspace.o)
    0x08000274   0x0000000c   Code   RO         3809    .text               c_w.l(sys_exit.o)
    0x08000280   0x00000002   Code   RO         3820    .text               c_w.l(use_no_semi.o)
    0x08000282   0x00000000   Code   RO         3822    .text               c_w.l(indicate_semi.o)
    0x08000282   0x00000002   PAD
    0x08000284   0x00000080   Code   RO         3207    _IQ15cosPU          IQmathLib-cm3.lib(IQNcosPU.o)
    0x08000304   0x00000090   Code   RO         3297    _IQ15div            IQmathLib-cm3.lib(IQNdiv.o)
    0x08000394   0x00000010   Code   RO         3387    _IQ15mpy            IQmathLib-cm3.lib(IQNmpy.o)
    0x080003a4   0x0000007c   Code   RO         3477    _IQ15sinPU          IQmathLib-cm3.lib(IQNsinPU.o)
    0x08000420   0x00000024   Code   RO         3567    _IQ15toF            IQmathLib-cm3.lib(IQNtoF.o)
    0x08000444   0x00000016   Code   RO         2770    i.ADC_Cmd           stm32f10x_adc.o
    0x0800045a   0x00000002   PAD
    0x0800045c   0x0000005c   Code   RO         2772    i.ADC_DeInit        stm32f10x_adc.o
    0x080004b8   0x00000014   Code   RO         2778    i.ADC_GetCalibrationStatus  stm32f10x_adc.o
    0x080004cc   0x00000008   Code   RO         2779    i.ADC_GetConversionValue  stm32f10x_adc.o
    0x080004d4   0x00000012   Code   RO         2781    i.ADC_GetFlagStatus  stm32f10x_adc.o
    0x080004e6   0x00000014   Code   RO         2784    i.ADC_GetResetCalibrationStatus  stm32f10x_adc.o
    0x080004fa   0x00000002   PAD
    0x080004fc   0x00000050   Code   RO         2788    i.ADC_Init          stm32f10x_adc.o
    0x0800054c   0x000000b8   Code   RO         2792    i.ADC_RegularChannelConfig  stm32f10x_adc.o
    0x08000604   0x0000000a   Code   RO         2793    i.ADC_ResetCalibration  stm32f10x_adc.o
    0x0800060e   0x00000016   Code   RO         2795    i.ADC_SoftwareStartConvCmd  stm32f10x_adc.o
    0x08000624   0x0000000a   Code   RO         2797    i.ADC_StartCalibration  stm32f10x_adc.o
    0x0800062e   0x00000074   Code   RO          799    i.AS5600_Read_Len   as5600.o
    0x080006a2   0x00000002   PAD
    0x080006a4   0x000000e0   Code   RO          768    i.Adc_Init          adc.o
    0x08000784   0x00000004   Code   RO         3096    i.BusFault_Handler  stm32f10x_it.o
    0x08000788   0x0000002c   Code   RO          887    i.DMA1_Channel7_IRQHandler  dma2.o
    0x080007b4   0x0000001c   Code   RO         2987    i.DMA_ClearITPendingBit  stm32f10x_dma.o
    0x080007d0   0x00000018   Code   RO         2988    i.DMA_Cmd           stm32f10x_dma.o
    0x080007e8   0x0000014c   Code   RO         2989    i.DMA_DeInit        stm32f10x_dma.o
    0x08000934   0x0000002c   Code   RO         2992    i.DMA_GetITStatus   stm32f10x_dma.o
    0x08000960   0x00000012   Code   RO         2993    i.DMA_ITConfig      stm32f10x_dma.o
    0x08000972   0x0000003c   Code   RO         2994    i.DMA_Init          stm32f10x_dma.o
    0x080009ae   0x00000004   Code   RO         2995    i.DMA_SetCurrDataCounter  stm32f10x_dma.o
    0x080009b2   0x00000002   Code   RO         3097    i.DebugMon_Handler  stm32f10x_it.o
    0x080009b4   0x00000018   Code   RO          421    i.EXTI0_IRQHandler  exti.o
    0x080009cc   0x0000004c   Code   RO          422    i.EXTI4_IRQHandler  exti.o
    0x08000a18   0x00000020   Code   RO          423    i.EXTI9_5_IRQHandler  exti.o
    0x08000a38   0x0000000c   Code   RO         1033    i.EXTI_ClearITPendingBit  stm32f10x_exti.o
    0x08000a44   0x00000094   Code   RO         1038    i.EXTI_Init         stm32f10x_exti.o
    0x08000ad8   0x00000074   Code   RO          424    i.EXTI_KEY_Config   exti.o
    0x08000b4c   0x0000003e   Code   RO          161    i.EXTI_KEY_NVIC_Config  nvic.o
    0x08000b8a   0x00000002   PAD
    0x08000b8c   0x00000040   Code   RO         1089    i.GPIO_EXTILineConfig  stm32f10x_gpio.o
    0x08000bcc   0x00000116   Code   RO         1092    i.GPIO_Init         stm32f10x_gpio.o
    0x08000ce2   0x00000004   Code   RO         1099    i.GPIO_ResetBits    stm32f10x_gpio.o
    0x08000ce6   0x00000002   PAD
    0x08000ce8   0x00000034   Code   RO          769    i.Get_Adc1          adc.o
    0x08000d1c   0x00000034   Code   RO          770    i.Get_Adc2          adc.o
    0x08000d50   0x00000004   Code   RO         3098    i.HardFault_Handler  stm32f10x_it.o
    0x08000d54   0x00000048   Code   RO          830    i.IIC_Ack           myiic.o
    0x08000d9c   0x00000040   Code   RO          831    i.IIC_Init          myiic.o
    0x08000ddc   0x00000044   Code   RO          832    i.IIC_NAck          myiic.o
    0x08000e20   0x00000068   Code   RO          833    i.IIC_Read_Byte     myiic.o
    0x08000e88   0x00000058   Code   RO          834    i.IIC_Send_Byte     myiic.o
    0x08000ee0   0x00000048   Code   RO          835    i.IIC_Start         myiic.o
    0x08000f28   0x00000044   Code   RO          836    i.IIC_Stop          myiic.o
    0x08000f6c   0x00000058   Code   RO          837    i.IIC_Wait_Ack      myiic.o
    0x08000fc4   0x0000000a   Code   RO          687    i.IQtoABS0_1        timer1.o
    0x08000fce   0x00000002   PAD
    0x08000fd0   0x00000060   Code   RO          409    i.LED_INIT          led.o
    0x08001030   0x00000004   Code   RO         3099    i.MemManage_Handler  stm32f10x_it.o
    0x08001034   0x00000002   Code   RO         3100    i.NMI_Handler       stm32f10x_it.o
    0x08001036   0x0000005e   Code   RO          162    i.NVIC_Config       nvic.o
    0x08001094   0x00000070   Code   RO          951    i.NVIC_Init         misc.o
    0x08001104   0x00000014   Code   RO          952    i.NVIC_PriorityGroupConfig  misc.o
    0x08001118   0x00000002   Code   RO         3101    i.PendSV_Handler    stm32f10x_it.o
    0x0800111a   0x00000002   PAD
    0x0800111c   0x00000018   Code   RO         1200    i.RCC_ADCCLKConfig  stm32f10x_rcc.o
    0x08001134   0x00000020   Code   RO         1201    i.RCC_AHBPeriphClockCmd  stm32f10x_rcc.o
    0x08001154   0x00000020   Code   RO         1202    i.RCC_APB1PeriphClockCmd  stm32f10x_rcc.o
    0x08001174   0x00000020   Code   RO         1203    i.RCC_APB1PeriphResetCmd  stm32f10x_rcc.o
    0x08001194   0x00000020   Code   RO         1204    i.RCC_APB2PeriphClockCmd  stm32f10x_rcc.o
    0x080011b4   0x00000020   Code   RO         1205    i.RCC_APB2PeriphResetCmd  stm32f10x_rcc.o
    0x080011d4   0x000000d4   Code   RO         1212    i.RCC_GetClocksFreq  stm32f10x_rcc.o
    0x080012a8   0x00000002   Code   RO         3102    i.SVC_Handler       stm32f10x_it.o
    0x080012aa   0x00000008   Code   RO         3159    i.SetSysClock       system_stm32f10x.o
    0x080012b2   0x00000002   PAD
    0x080012b4   0x000000e0   Code   RO         3160    i.SetSysClockTo72   system_stm32f10x.o
    0x08001394   0x00000028   Code   RO          955    i.SysTick_CLKSourceConfig  misc.o
    0x080013bc   0x00000002   Code   RO         3103    i.SysTick_Handler   stm32f10x_it.o
    0x080013be   0x00000002   PAD
    0x080013c0   0x00000060   Code   RO         3162    i.SystemInit        system_stm32f10x.o
    0x08001420   0x00000022   Code   RO          163    i.TIM1_NVIC_Config  nvic.o
    0x08001442   0x00000002   PAD
    0x08001444   0x0000006c   Code   RO          688    i.TIM1_UP_IRQHandler  timer1.o
    0x080014b0   0x0000001e   Code   RO          164    i.TIM2_NVIC_Config  nvic.o
    0x080014ce   0x00000002   PAD
    0x080014d0   0x000002b8   Code   RO          456    i.TIM3_IRQHandler   timer.o
    0x08001788   0x00000068   Code   RO          457    i.TIM3_Init         timer.o
    0x080017f0   0x00000020   Code   RO          165    i.TIM3_NVIC_Config  nvic.o
    0x08001810   0x00000022   Code   RO          166    i.TIM4_NVIC_Config  nvic.o
    0x08001832   0x00000018   Code   RO         1833    i.TIM_ARRPreloadConfig  stm32f10x_tim.o
    0x0800184a   0x00000020   Code   RO         1834    i.TIM_BDTRConfig    stm32f10x_tim.o
    0x0800186a   0x00000018   Code   RO         1836    i.TIM_CCPreloadControl  stm32f10x_tim.o
    0x08001882   0x00000006   Code   RO         1839    i.TIM_ClearFlag     stm32f10x_tim.o
    0x08001888   0x00000018   Code   RO         1845    i.TIM_Cmd           stm32f10x_tim.o
    0x080018a0   0x0000001e   Code   RO         1847    i.TIM_CtrlPWMOutputs  stm32f10x_tim.o
    0x080018be   0x00000002   PAD
    0x080018c0   0x000001e8   Code   RO         1850    i.TIM_DeInit        stm32f10x_tim.o
    0x08001aa8   0x00000022   Code   RO         1866    i.TIM_GetITStatus   stm32f10x_tim.o
    0x08001aca   0x00000012   Code   RO         1870    i.TIM_ITConfig      stm32f10x_tim.o
    0x08001adc   0x00000098   Code   RO         1874    i.TIM_OC1Init       stm32f10x_tim.o
    0x08001b74   0x00000012   Code   RO         1877    i.TIM_OC1PreloadConfig  stm32f10x_tim.o
    0x08001b86   0x00000002   PAD
    0x08001b88   0x000000a4   Code   RO         1879    i.TIM_OC2Init       stm32f10x_tim.o
    0x08001c2c   0x0000001a   Code   RO         1882    i.TIM_OC2PreloadConfig  stm32f10x_tim.o
    0x08001c46   0x00000002   PAD
    0x08001c48   0x000000a0   Code   RO         1884    i.TIM_OC3Init       stm32f10x_tim.o
    0x08001ce8   0x00000012   Code   RO         1887    i.TIM_OC3PreloadConfig  stm32f10x_tim.o
    0x08001cfa   0x00000002   PAD
    0x08001cfc   0x000000a4   Code   RO         1916    i.TIM_TimeBaseInit  stm32f10x_tim.o
    0x08001da0   0x0000005c   Code   RO          239    i.USART1_IRQHandler  usart1.o
    0x08001dfc   0x00000020   Code   RO          167    i.USART1_NVIC_Config  nvic.o
    0x08001e1c   0x00000002   Code   RO          243    i.USART1_info_deal  usart1.o
    0x08001e1e   0x00000002   PAD
    0x08001e20   0x00000038   Code   RO          889    i.USART2_IRQHandler  dma2.o
    0x08001e58   0x00000022   Code   RO          168    i.USART2_NVIC_Config  nvic.o
    0x08001e7a   0x00000002   PAD
    0x08001e7c   0x0000061c   Code   RO          319    i.USART2_info_deal  usart2.o
    0x08002498   0x00000060   Code   RO          360    i.USART3_IRQHandler  usart3.o
    0x080024f8   0x0000001e   Code   RO          169    i.USART3_NVIC_Config  nvic.o
    0x08002516   0x00000002   Code   RO          364    i.USART3_data_translate  usart3.o
    0x08002518   0x00000038   Code   RO          365    i.USART3_info_deal  usart3.o
    0x08002550   0x00000012   Code   RO         2377    i.USART_ClearFlag   stm32f10x_usart.o
    0x08002562   0x0000001e   Code   RO         2378    i.USART_ClearITPendingBit  stm32f10x_usart.o
    0x08002580   0x00000018   Code   RO         2381    i.USART_Cmd         stm32f10x_usart.o
    0x08002598   0x00000012   Code   RO         2382    i.USART_DMACmd      stm32f10x_usart.o
    0x080025aa   0x00000054   Code   RO         2385    i.USART_GetITStatus  stm32f10x_usart.o
    0x080025fe   0x0000004a   Code   RO         2387    i.USART_ITConfig    stm32f10x_usart.o
    0x08002648   0x000000d8   Code   RO         2388    i.USART_Init        stm32f10x_usart.o
    0x08002720   0x00000004   Code   RO         3104    i.UsageFault_Handler  stm32f10x_it.o
    0x08002724   0x0000010c   Code   RO          580    i.ang_pi_cal        motor_control.o
    0x08002830   0x0000002c   Code   RO          581    i.clear_pi          motor_control.o
    0x0800285c   0x00000070   Code   RO          582    i.clr_ctl_vrbs      motor_control.o
    0x080028cc   0x00000034   Code   RO          583    i.commond_start     motor_control.o
    0x08002900   0x00000014   Code   RO          584    i.commond_stop      motor_control.o
    0x08002914   0x00000084   Code   RO          585    i.crose_zero_iq     motor_control.o
    0x08002998   0x000000ac   Code   RO          586    i.ctl_struc_init    motor_control.o
    0x08002a44   0x0000011c   Code   RO          587    i.cur_pi_cal        motor_control.o
    0x08002b60   0x00000044   Code   RO         3058    i.delay_init        delay.o
    0x08002ba4   0x0000004c   Code   RO         3059    i.delay_ms          delay.o
    0x08002bf0   0x0000004c   Code   RO         3060    i.delay_us          delay.o
    0x08002c3c   0x0000001e   Code   RO          800    i.get_angle_u16     as5600.o
    0x08002c5a   0x00000002   PAD
    0x08002c5c   0x0000003c   Code   RO          801    i.get_el_angle_iq   as5600.o
    0x08002c98   0x000001a0   Code   RO          588    i.init_angle        motor_control.o
    0x08002e38   0x00000046   Code   RO          523    i.ipark_calc        ipark.o
    0x08002e7e   0x0000003a   Code   RO           24    i.main              main.o
    0x08002eb8   0x00000364   Code   RO          589    i.motor_control     motor_control.o
    0x0800321c   0x00000060   Code   RO          590    i.over_cur_proctect  motor_control.o
    0x0800327c   0x00000002   Code   RO          690    i.pwm_cnt_irq_init  timer1.o
    0x0800327e   0x00000002   PAD
    0x08003280   0x00000010   Code   RO          691    i.pwm_disable       timer1.o
    0x08003290   0x00000010   Code   RO          692    i.pwm_enable        timer1.o
    0x080032a0   0x00000014   Code   RO          693    i.pwm_init          timer1.o
    0x080032b4   0x00000044   Code   RO          694    i.pwm_pin_init      timer1.o
    0x080032f8   0x0000000e   Code   RO          695    i.pwm_rcc_init      timer1.o
    0x08003306   0x00000002   PAD
    0x08003308   0x00000074   Code   RO          696    i.pwm_reset_duty    timer1.o
    0x0800337c   0x00000160   Code   RO          697    i.pwm_tim_init      timer1.o
    0x080034dc   0x000000dc   Code   RO          591    i.spd_pi_cal        motor_control.o
    0x080035b8   0x00000180   Code   RO          592    i.speed_calc_iq     motor_control.o
    0x08003738   0x000000bc   Code   RO          890    i.uart2_dma_config  dma2.o
    0x080037f4   0x000000a0   Code   RO          891    i.uart2_init        dma2.o
    0x08003894   0x0000002c   Code   RO          892    i.usart2_dma_run    dma2.o
    0x080038c0   0x00000024   Code   RO          893    i.usart2_recv_dma   dma2.o
    0x080038e4   0x00000028   Code   RO          894    i.usart2_send_dma   dma2.o
    0x0800390c   0x00000804   Code   RO         3648    sincos_table        IQmathLib-cm3.lib(IQtables.o)
    0x08004110   0x00000150   Code   RO         3667    x$fpl$dadd          fz_ws.l(daddsub_clz.o)
    0x08004260   0x000002b0   Code   RO         3674    x$fpl$ddiv          fz_ws.l(ddiv.o)
    0x08004510   0x0000005e   Code   RO         3677    x$fpl$dfix          fz_ws.l(dfix.o)
    0x0800456e   0x0000002e   Code   RO         3682    x$fpl$dflt          fz_ws.l(dflt_clz.o)
    0x0800459c   0x00000026   Code   RO         3681    x$fpl$dfltu         fz_ws.l(dflt_clz.o)
    0x080045c2   0x00000002   PAD
    0x080045c4   0x00000154   Code   RO         3687    x$fpl$dmul          fz_ws.l(dmul.o)
    0x08004718   0x0000009c   Code   RO         3714    x$fpl$dnaninf       fz_ws.l(dnaninf.o)
    0x080047b4   0x0000000c   Code   RO         3716    x$fpl$dretinf       fz_ws.l(dretinf.o)
    0x080047c0   0x000001d4   Code   RO         3669    x$fpl$dsub          fz_ws.l(daddsub_clz.o)
    0x08004994   0x00000056   Code   RO         3689    x$fpl$f2d           fz_ws.l(f2d.o)
    0x080049ea   0x00000002   PAD
    0x080049ec   0x000000c4   Code   RO         3691    x$fpl$fadd          fz_ws.l(faddsub_clz.o)
    0x08004ab0   0x00000184   Code   RO         3698    x$fpl$fdiv          fz_ws.l(fdiv.o)
    0x08004c34   0x0000003e   Code   RO         3701    x$fpl$ffixu         fz_ws.l(ffixu.o)
    0x08004c72   0x00000002   PAD
    0x08004c74   0x00000030   Code   RO         3706    x$fpl$fflt          fz_ws.l(fflt_clz.o)
    0x08004ca4   0x00000026   Code   RO         3705    x$fpl$ffltu         fz_ws.l(fflt_clz.o)
    0x08004cca   0x00000002   PAD
    0x08004ccc   0x00000102   Code   RO         3711    x$fpl$fmul          fz_ws.l(fmul.o)
    0x08004dce   0x0000008c   Code   RO         3718    x$fpl$fnaninf       fz_ws.l(fnaninf.o)
    0x08004e5a   0x0000000a   Code   RO         3720    x$fpl$fretinf       fz_ws.l(fretinf.o)
    0x08004e64   0x000000ea   Code   RO         3693    x$fpl$fsub          fz_ws.l(faddsub_clz.o)
    0x08004f4e   0x00000000   Code   RO         3722    x$fpl$usenofp       fz_ws.l(usenofp.o)
    0x08004f4e   0x00000002   PAD
    0x08004f50   0x00000020   Data   RO         3875    Region$$Table       anon$$obj.o


    Execution Region RW_IRAM1 (Base: 0x20000000, Size: 0x00001658, Max: 0x00005000, ABSOLUTE, COMPRESSED[0x00000050])

    Base Addr    Size         Type   Attr      Idx    E Section Name        Object

    0x20000000   0x00000005   Data   RW          245    .data               usart1.o
    0x20000005   0x00000003   PAD
    0x20000008   0x00000008   Data   RW          367    .data               usart3.o
    0x20000010   0x00000150   Data   RW          595    .data               motor_control.o
    0x20000160   0x00000007   Data   RW          896    .data               dma2.o
    0x20000167   0x00000014   Data   RW         1232    .data               stm32f10x_rcc.o
    0x2000017b   0x00000001   PAD
    0x2000017c   0x00000004   Data   RW         3061    .data               delay.o
    0x20000180   0x00000014   Data   RW         3163    .data               system_stm32f10x.o
    0x20000194   0x00000280   Zero   RW          244    .bss                usart1.o
    0x20000414   0x00000280   Zero   RW          320    .bss                usart2.o
    0x20000694   0x00000280   Zero   RW          366    .bss                usart3.o
    0x20000914   0x00000014   Zero   RW          524    .bss                ipark.o
    0x20000928   0x00000054   Zero   RW          594    .bss                motor_control.o
    0x2000097c   0x0000067c   Zero   RW          895    .bss                dma2.o
    0x20000ff8   0x00000060   Zero   RW         3749    .bss                c_w.l(libspace.o)
    0x20001058   0x00000200   Zero   RW           18    HEAP                startup_stm32f10x_md.o
    0x20001258   0x00000400   Zero   RW           17    STACK               startup_stm32f10x_md.o


==============================================================================

Image component sizes


      Code (inc. data)   RO Data    RW Data    ZI Data      Debug   Object Name

       328         26          0          0          0       1857   adc.o
       206         12          0          0          0       2408   as5600.o
         0          0          0          0          0       4548   core_cm3.o
       220         26          0          4          0       1911   delay.o
       568         66          0          7       1660       5156   dma2.o
       248         28          0          0          0       2225   exti.o
        70          0          0          0         20       1699   ipark.o
        96          8          0          0          0        555   led.o
        58          0          0          0          0      76300   main.o
       172         22          0          0          0       2241   misc.o
      3068        342          0        336         84      11548   motor_control.o
       624        102          0          0          0       4566   myiic.o
       382          0          0          0          0     208644   nvic.o
        64         26        236          0       1536        840   startup_stm32f10x_md.o
       486         24          0          0          0       9162   stm32f10x_adc.o
       510         26          0          0          0       6080   stm32f10x_dma.o
       160         12          0          0          0       1641   stm32f10x_exti.o
       346          4          0          0          0       3307   stm32f10x_gpio.o
        26          0          0          0          0       4126   stm32f10x_it.o
       396         56          0         20          0       7115   stm32f10x_rcc.o
      1382        146          0          0          0      11282   stm32f10x_tim.o
       464          6          0          0          0       6613   stm32f10x_usart.o
       328         28          0         20          0       2317   system_stm32f10x.o
       800         54          0          0          0       1686   timer.o
       722         56          0          0          0       5761   timer1.o
        94         14          0          5        640      13781   usart1.o
      1564        100          0          0        640       2161   usart2.o
       154         16          0          8        640       3165   usart3.o

    ----------------------------------------------------------------------
     13576       1200        268        404       5220     402695   Object Totals
         0          0         32          0          0          0   (incl. Generated)
        40          0          0          4          0          0   (incl. Padding)

    ----------------------------------------------------------------------

      Code (inc. data)   RO Data    RW Data    ZI Data      Debug   Library Member Name

       128         14          0          0          0        248   IQNcosPU.o
       144          2          0          0          0        256   IQNdiv.o
        16          2          0          0          0        196   IQNmpy.o
       124         14          0          0          0        244   IQNsinPU.o
        36          0          0          0          0        212   IQNtoF.o
      2052       2052          0          0          0        164   IQtables.o
        90          0          0          0          0          0   __dczerorl2.o
         8          0          0          0          0         68   __main.o
         0          0          0          0          0          0   __rtentry.o
        12          0          0          0          0          0   __rtentry2.o
         6          0          0          0          0          0   __rtentry4.o
        52          8          0          0          0          0   __scatter.o
        28          0          0          0          0          0   __scatter_zi.o
        18          0          0          0          0         80   exit.o
         6          0          0          0          0        152   heapauxi.o
         0          0          0          0          0          0   indicate_semi.o
         2          0          0          0          0          0   libinit.o
         2          0          0          0          0          0   libinit2.o
         2          0          0          0          0          0   libshutdown.o
         2          0          0          0          0          0   libshutdown2.o
         8          4          0          0         96         68   libspace.o
         2          0          0          0          0          0   rtexit.o
        10          0          0          0          0          0   rtexit2.o
        12          4          0          0          0         68   sys_exit.o
        74          0          0          0          0         80   sys_stackheap_outer.o
         2          0          0          0          0         68   use_no_semi.o
       804         16          0          0          0        272   daddsub_clz.o
       688        140          0          0          0        208   ddiv.o
        94          4          0          0          0         92   dfix.o
        84          0          0          0          0        136   dflt_clz.o
       340         12          0          0          0        104   dmul.o
       156          4          0          0          0         92   dnaninf.o
        12          0          0          0          0         68   dretinf.o
        86          4          0          0          0         84   f2d.o
       430          8          0          0          0        168   faddsub_clz.o
       388         76          0          0          0         96   fdiv.o
        62          4          0          0          0         84   ffixu.o
        86          0          0          0          0        136   fflt_clz.o
       258          4          0          0          0         84   fmul.o
       140          4          0          0          0         84   fnaninf.o
        10          0          0          0          0         68   fretinf.o
         0          0          0          0          0          0   usenofp.o

    ----------------------------------------------------------------------
      6492       2376          0          0         96       3680   Library Totals
        18          0          0          0          0          0   (incl. Padding)

    ----------------------------------------------------------------------

      Code (inc. data)   RO Data    RW Data    ZI Data      Debug   Library Name

      2500       2084          0          0          0       1320   IQmathLib-cm3.lib
       336         16          0          0         96        584   c_w.l
      3638        276          0          0          0       1776   fz_ws.l

    ----------------------------------------------------------------------
      6492       2376          0          0         96       3680   Library Totals

    ----------------------------------------------------------------------

==============================================================================


      Code (inc. data)   RO Data    RW Data    ZI Data      Debug   

     20068       3576        268        404       5316     398259   Grand Totals
     20068       3576        268         80       5316     398259   ELF Image Totals (compressed)
     20068       3576        268         80          0          0   ROM Totals

==============================================================================

    Total RO  Size (Code + RO Data)                20336 (  19.86kB)
    Total RW  Size (RW Data + ZI Data)              5720 (   5.59kB)
    Total ROM Size (Code + RO Data + RW Data)      20416 (  19.94kB)

==============================================================================

